:100000000C942A001895000018950000189500001F
:10001000189500001895000018950000189500002C
:10002000189500000C94E504189500001895000040
:10003000189500001895000018950000189500000C
:1000400018950000189500001895000018950000FC
:10005000189500008FE58DBFC0E4E8E34E2E88E0E0
:100060008EBFD8E0F8E05F2EEEEFF7E0A0E6B0E05C
:10007000A89584B7082E877F84BF88E1992781BD22
:1000800091BD88278D933197E9F76624D59ADD9A3B
:1000900084B7877F84BF8EE181BD86E081BD81B555
:1000A000886081BDA89580E08FBD84E08EBD89B752
:1000B000846089BF789484E08EBD8E9A8C9A8D9AE4
:1000C0008F9AA59AA79AA19AA39AA49AA69AA09A57
:1000D000A29A9698949895989798D49AD39AD29AE7
:1000E000BF98BE98BD98BA9ABB9ABC9A88988998CE
:1000F0008A98E0E0F0E0A3E7B0E00E946209E2E065
:10010000F0E0A5E7B0E00E946209E4E0F0E0A7E7D4
:10011000B0E00E946209E1E0F0E0A4E7B0E00E94F4
:100120006209E3E0F0E0A6E7B0E00E946209E5E0E2
:10013000F0E0A8E7B0E00E946209DC98DB98DA986A
:1001400084E08EBD0027A0E3B0E08C9182FB0EF42A
:1001500001E041E0041711F00C94FE0080E090E013
:10016000A0E6B0E08D939C938EB5887F8EBDA0E60F
:10017000B0E00E945708A89584E690E00E94D1085C
:100180008BB390E189278BBB8BB398E089278BBB1E
:100190008BB394E089278BBBA0E6B0E00D911C9156
:1001A0000F3050E0150718F011F00C94D9000C94A2
:1001B000EF00DC9ADB9ADA9A8AE090E00E94D1089C
:1001C000A8950027A0E3B0E08C9182FB0EF401E03B
:1001D00040E0041711F00C94DC000C944E0500274D
:1001E000A0E3B0E08C9182FB0EF401E040E0041744
:1001F00011F00C94B700DC98DB98DA980027A6E39E
:10020000B0E08C9187FB0EF401E041E0041711F09F
:100210000C94590100917C00003080E010F009F04E
:1002200081E08F9300917900003080E010F009F0B8
:1002300081E09F91892B882311F40C94340180E094
:100240008093790080E080937C00C298E894AFE7C7
:10025000B0E08C9180F98C93E894AFE7B0E08C919A
:1002600081F98C930C9448018091730080937900FC
:100270008091740080937C006894AFE7B0E08C912B
:1002800080F98C93E894AFE7B0E08C9181F98C937E
:100290008AE090E00E94D108A8950027A6E3B0E08C
:1002A0008C9187FB0EF401E040E0041711F00C94F0
:1002B00048010027A6E3B0E08C9186FB0EF401E034
:1002C00041E0041711F00C94B40100917D0000305E
:1002D00080E010F009F081E08F9300917A00003007
:1002E00080E010F009F081E09F91892B882311F4C0
:1002F0000C948F0180E080937A0080E080937D00F1
:10030000C398E894AFE7B0E08C9182F98C93E894BD
:10031000AFE7B0E08C9183F98C930C94A3018091AA
:10032000730080937A008091740080937D006894BC
:10033000AFE7B0E08C9182F98C93E894AFE7B0E03E
:100340008C9183F98C938AE090E00E94D108A89563
:100350000027A6E3B0E08C9186FB0EF401E040E0BC
:10036000041711F00C94A3010027A6E3B0E08C91D0
:1003700085FB0EF401E041E0041711F00C940F022C
:1003800000917E00003080E010F009F081E08F9352
:1003900000917B00003080E010F009F081E09F9137
:1003A000892B882311F40C94EA0180E080937B0070
:1003B00080E080937E00C498E894AFE7B0E08C9131
:1003C00084F98C93E894AFE7B0E08C9185F98C9335
:1003D0000C94FE018091770080937B0080917800DF
:1003E00080937E006894AFE7B0E08C9184F98C93A1
:1003F000E894AFE7B0E08C9185F98C938AE090E0C7
:100400000E94D108A8950027A6E3B0E08C9185FB57
:100410000EF401E040E0041711F00C94FE0100918D
:100420007C00003081E009F080E08F93AFE7B0E01E
:100430000C9100FB00270EF401E041E0041781E07D
:1004400009F080E09F9189238F93AFE7B0E00C9192
:1004500001FB00270EF401E040E0041781E009F001
:1004600080E09F918923882311F40C944A02E89438
:10047000AFE7B0E08C9180F98C936894AFE7B0E07F
:100480008C9181F98C93C29AE8EDF2E10E94BD084B
:100490000E94C50800917C00003081E009F080E0F6
:1004A0008F93AFE7B0E00C9100FB00270EF401E062
:1004B00040E0041781E009F080E09F9189238F9349
:1004C000AFE7B0E00C9101FB00270EF401E041E042
:1004D000041781E009F080E09F918923882311F4BB
:1004E0000C949302809179008150809379008CE381
:1004F00080937C0000917900003011F00C949302FD
:10050000E894AFE7B0E08C9180F98C93E894AFE782
:10051000B0E08C9181F98C93C298E2EEF2E10E94F6
:10052000BD080E94C50800917D00003081E009F0FF
:1005300080E08F93AFE7B0E00C9102FB00270EF450
:1005400001E041E0041781E009F080E09F918923F8
:100550008F93AFE7B0E00C9103FB00270EF401E0AE
:1005600040E0041781E009F080E09F91892388230F
:1005700011F40C94C802E894AFE7B0E08C9182F9D2
:100580008C936894AFE7B0E08C9183F98C93C39A15
:1005900000917D00003081E009F080E08F93AFE7AB
:1005A000B0E00C9102FB00270EF401E040E00417DC
:1005B00081E009F080E09F9189238F93AFE7B0E05D
:1005C0000C9103FB00270EF401E041E0041781E0E9
:1005D00009F080E09F918923882311F40C940B0388
:1005E00080917A00815080937A008CE380937D0023
:1005F00000917A00003011F00C940B03E894AFE7FF
:10060000B0E08C9182F98C93E894AFE7B0E08C91E4
:1006100083F98C93C39800917E00003081E009F04B
:1006200080E08F93AFE7B0E00C9104FB00270EF45D
:1006300001E041E0041781E009F080E09F91892307
:100640008F93AFE7B0E00C9105FB00270EF401E0BB
:1006500040E0041781E009F080E09F91892388231E
:1006600011F40C944003E894AFE7B0E08C9184F966
:100670008C936894AFE7B0E08C9185F98C93C49A21
:1006800000917E00003081E009F080E08F93AFE7B9
:10069000B0E00C9104FB00270EF401E040E00417E9
:1006A00081E009F080E09F9189238F93AFE7B0E06C
:1006B0000C9105FB00270EF401E041E0041781E0F6
:1006C00009F080E09F918923882311F40C9483031F
:1006D00080917B00815080937B008CE380937E002F
:1006E00000917B00003011F00C948303E894AFE795
:1006F000B0E08C9184F98C93E894AFE7B0E08C91F2
:1007000085F98C93C4980027A0E3B0E08C9180FB1E
:100710000EF401E041E0041711F00C9478040E94FB
:10072000C5080E94C508EEEEF2E10E94BD08A0E2F5
:10073000B8E0ECE7F0E00E9401090E94C908E4EF8C
:10074000F2E10E94BD08A0E2B8E0E9E7F0E00E9413
:1007500001090E94C908ECEFF2E10E94BD08A8E37C
:10076000B0E08C9182FBA0E2B8E00E94E0088D939B
:1007700088278C930E94C908E6E0F3E10E94BD0837
:10078000AFE7B0E08C9180FBA0E2B8E00E94E00807
:100790008D9388278C930E94C908AFE7B0E08C91B5
:1007A00081FBA0E2B8E00E94E0088D9388278C933B
:1007B0000E94C9080E94C508EEE0F3E10E94BD084E
:1007C000A0E2B8E0EDE7F0E00E9401090E94C9084C
:1007D000E4EFF2E10E94BD08A0E2B8E0EAE7F0E051
:1007E0000E9401090E94C908ECEFF2E10E94BD08D5
:1007F000A8E3B0E08C9183FBA0E2B8E00E94E0089F
:100800008D9388278C930E94C908E6E0F3E10E944B
:10081000BD08AFE7B0E08C9182FBA0E2B8E00E9497
:10082000E0088D9388278C930E94C908AFE7B0E059
:100830008C9183FBA0E2B8E00E94E0088D938827AA
:100840008C930E94C9080E94C508E4E1F3E10E946C
:10085000BD08A0E2B8E0EEE7F0E00E9401090E94C6
:10086000C908E4EFF2E10E94BD08A0E2B8E0EBE7BE
:10087000F0E00E9401090E94C908ECEFF2E10E9439
:10088000BD08A8E3B0E08C9184FBA0E2B8E00E9430
:10089000E0088D9388278C930E94C908E6E0F3E175
:1008A0000E94BD08AFE7B0E08C9184FBA0E2B8E005
:1008B0000E94E0088D9388278C930E94C908AFE7B7
:1008C000B0E08C9185FBA0E2B8E00E94E0088D9337
:1008D00088278C930E94C9080E94C508EAE1F3E1C9
:1008E0000E94BD080E94C50884EF91E00E94D108D3
:1008F0000027A0E3B0E08C9181FB0EF401E041E021
:10090000041711F00C94DE040E94C508EEEEF2E12B
:100910000E94BD08A0E2B8E0E4E7F0E00E9401090F
:100920000E94C908E4EFF2E10E94BD08A0E2B8E02D
:10093000E3E7F0E00E9401090E94C9080E94C5088F
:10094000EEE0F3E10E94BD08A0E2B8E0E6E7F0E0E7
:100950000E9401090E94C908E4EFF2E10E94BD086B
:10096000A0E2B8E0E5E7F0E00E9401090E94C908B2
:100970000E94C508E4E1F3E10E94BD08A0E2B8E0EE
:10098000E8E7F0E00E9401090E94C908E4EFF2E103
:100990000E94BD08A0E2B8E0E7E7F0E00E9401098C
:1009A0000E94C9080E94C508EAE3F3E10E94BD085D
:1009B0000E94C50884EF91E00E94D108A89581E0CB
:1009C00090E00E94D1080C94A2000F921F922F92E7
:1009D0003F924F925F927F92AF92BF920F931F937D
:1009E0002F933F934F935F936F937F938F939F9337
:1009F000AF93BF93CF93DF93EF93FF938FB78F9313
:100A00008FE397E59DBD8CBD8BB390E189278BBBB0
:100A100000917C00003018F011F00C9411050C943A
:100A2000160580917C00815080937C0000917D00B0
:100A3000003018F011F00C941F050C9424058091DF
:100A40007D00815080937D0000917E00003018F081
:100A500011F00C942D050C94320580917E0081508C
:100A600080937E008F918FBFFF91EF91DF91CF91A7
:100A7000BF91AF919F918F917F916F915F914F91B6
:100A80003F912F911F910F91BF90AF907F905F90FA
:100A90004F903F902F901F900F901895DC9ADB9805
:100AA000DA9880E0809368008091730080936900F9
:100AB0000E944F068091690080937300E0E0F0E0AF
:100AC000A9E6B0E07BE70E9451098AE090E00E942D
:100AD000D108A8950027A0E3B0E08C9182FB0EF42A
:100AE00001E040E0041711F00C9465058CE291E000
:100AF0000E94D108809174008093680080E0809308
:100B000069000E94D0068091680080937400E1E043
:100B1000F0E0A8E6B0E07BE70E9451098AE090E0AF
:100B20000E94D108A8950027A0E3B0E08C9182FB39
:100B30000EF401E040E0041711F00C948E058CE2F5
:100B400091E00E94D108DC98DB9ADA9880E08093EB
:100B5000680080917500809369000E944F06809123
:100B6000690080937500E2E0F0E0A9E6B0E07BE781
:100B70000E9451098AE090E00E94D108A8950027C0
:100B8000A0E3B0E08C9182FB0EF401E040E004179A
:100B900011F00C94BA058CE291E00E94D10880918A
:100BA00076008093680080E0809369000E94D00600
:100BB0008091680080937600E3E0F0E0A8E6B0E082
:100BC0007BE70E9451098AE090E00E94D108A89535
:100BD0000027A0E3B0E08C9182FB0EF401E040E03E
:100BE000041711F00C94E3058CE291E00E94D10807
:100BF000DC98DB98DA9A80E0809368008091770037
:100C0000809369000E944F0680916900809377006D
:100C1000E4E0F0E0A9E6B0E07BE70E9451098AE059
:100C200090E00E94D108A8950027A0E3B0E08C9145
:100C300082FB0EF401E040E0041711F00C940F0663
:100C40008CE291E00E94D108809178008093680046
:100C500080E0809369000E94D006809168008093B4
:100C60007800E5E0F0E0A8E6B0E07BE70E945109FB
:100C70008AE090E00E94D108A8950027A0E3B0E0A8
:100C80008C9182FB0EF401E040E0041711F00C940B
:100C900038068CE291E00E94D1080C949D000E94DD
:100CA00051070027A0E3B0E08C9180FB0EF401E037
:100CB00041E0041711F00C948806A9E6B0E08C918D
:100CC0008F5F8C93009169000B3318F011F00C9436
:100CD0006B060C946E0681E08093690081E090E0E1
:100CE000A0E6B0E08D939C93A0E6B0E00D911C913E
:100CF000083250E0150718F011F00C9488060E9495
:100D00005107A0E6B0E00E94570810F40C94740656
:100D10000027A0E3B0E08C9181FB0EF401E041E0FC
:100D2000041711F00C94BF068091690081508093E4
:100D30006900009169000B3318F011F00C94A206C1
:100D40000C94A5068BE38093690081E090E0A0E617
:100D5000B0E08D939C93A0E6B0E00D911C91083219
:100D600050E0150718F011F00C94BF060E945107CF
:100D7000A0E6B0E00E94570810F40C94AB060027E0
:100D8000A0E3B0E08C9182FB0EF401E041E0041797
:100D900011F00C94CD060C94CF060C944F060895D8
:100DA0000E9451070027A0E3B0E08C9180FB0EF475
:100DB00001E041E0041711F00C940907A8E6B0E047
:100DC0008C918F5F8C93009168000B3318F011F0B9
:100DD0000C94EC060C94EF0681E08093680081E0AF
:100DE00090E0A0E6B0E08D939C93A0E6B0E00D917A
:100DF0001C91083250E0150718F011F00C94090707
:100E00000E945107A0E6B0E00E94570810F40C942D
:100E1000F5060027A0E3B0E08C9181FB0EF401E021
:100E200041E0041711F00C94400780916800815054
:100E300080936800009168000B3318F011F00C9457
:100E400023070C9426078BE38093680081E090E0F1
:100E5000A0E6B0E08D939C93A0E6B0E00D911C91CC
:100E6000083250E0150718F011F00C9440070E946A
:100E70005107A0E6B0E00E94570810F40C942C072C
:100E80000027A0E3B0E08C9182FB0EF401E041E08A
:100E9000041711F00C944E070C9450070C94D006D4
:100EA0000895A8E6B0E00D9111274AE050E00E94B5
:100EB0008108AAE6B0E04D935C93A8E6B0E00D91FE
:100EC00011274AE050E00E948108ACE6B0E00D93A3
:100ED0001C93A9E6B0E00D9111274AE050E00E9472
:100EE0008108AEE6B0E04D935C93A9E6B0E00D91C9
:100EF00011274AE050E00E948108A0E7B0E00D937E
:100F00001C93969A80916A00809372000E94C70792
:100F100081E090E00E94D108969883E68093720069
:100F20000E94C707949A80916C00809372000E947F
:100F3000C70781E090E00E94D108949883E68093EF
:100F400072000E94C707959A80916E00809372008C
:100F50000E94C70781E090E00E94D108959883E63F
:100F6000809372000E94C707979A809170008093C7
:100F700072000E94C70781E090E00E94D108979814
:100F800083E6809372000E94C707A8950895009198
:100F90007200003011F00C94D407AD9AAF9AA99A60
:100FA000AB9AAC9AAE9AA89800917200013011F0F9
:100FB0000C94E107AD98AF9AA99AAB98AC98AE980B
:100FC000A89800917200023011F00C94EE07AD9ACF
:100FD000AF9AA998AB9AAC9AAE98A89A0091720071
:100FE000033011F00C94FB07AD9AAF9AA99AAB9A13
:100FF000AC98AE98A89A00917200043011F00C944D
:101000000808AD98AF9AA99AAB98AC98AE9AA89AEE
:1010100000917200053011F00C941508AD9AAF984C
:10102000A99AAB9AAC98AE9AA89A00917200063031
:1010300011F00C942208AD9AAF98A99AAB9AAC9A89
:10104000AE9AA89A00917200073011F00C942F0804
:10105000AD9AAF9AA99AAB98AC98AE98A89800911F
:101060007200083011F00C943C08AD9AAF9AA99A1E
:10107000AB9AAC9AAE9AA89A00917200093011F01E
:101080000C944908AD9AAF9AA99AAB9AAC98AE9ACB
:10109000A89A00917200033611F00C945608AD988E
:1010A000AF98A998AB98AC98AE98A8980895ED9190
:1010B000FC91EF5FFF4FFC93EE93089500FC10D07E
:1010C000089503D01ED001F8F9CF0024E89457FF0B
:1010D00002C009D0689400F80BD010F801240895DC
:1010E00002D009D00895509540954F5F5F4F089505
:1010F000E89417FF0895009510950F5F1F4F6894AF
:101100000895352F242FE894452B11F46894089501
:10111000512F402F0027112780E1440F551F001F3A
:10112000111F021B130B416018F4020F131F4E7F97
:101130008A9599F708953197F1F70895689462F8C0
:101140000895E89462F808958F939F938BE890E058
:101150000197F1F79F918F91089580952AE090E093
:10116000089410F4DD9802C0DD9A0000EDDFECDF9A
:10117000969587952A95A9F70895C895802D882377
:1011800019F0EBDF3196F9CF08958DE0E6DF8AE0C4
:10119000E4CFA0E2B8E08D91882311F0DEDFFBCF31
:1011A0000895EF93FF93EE27E82BE92B31F0EDEC58
:1011B000FAE03197F1F70197D1F7FF91EF91089598
:1011C00080E30EF483950895000F111F221F331F33
:1011D000089500951095209530950F5F1F4F2F4F64
:1011E0003F4F0895019110810EC0019111912191FD
:1011F00030810BC00191108117FF05C03FEF2FEF29
:1012000004C0008111272227332737FF03C0E1DF05
:101210008DE28D93CF93DF93CF92DF92EF92AA244A
:10122000BB24CC24DD24EE2440E2CAE0DD2755E0D7
:1012300093E38881890F87FD9F7083FD907F891BD1
:1012400089935A95A9F7C0DFAA1CBB1CCC1CDD1CD6
:10125000EE1C4A9551F7E894EFE0FF2782910ED0FB
:10126000EB30E0F71EF068948A2D0CD088278D9320
:10127000EF90DF90CF90DF91CF910895982F8295D6
:1012800001D0892F8F70805D26F0803309F4089596
:1012900068948D930895E199FECFEEBBFFBB319624
:1012A000089591E001C092E07B3751F47FB7F89444
:1012B000F2DF8D918DBBE29AE19A9A95C9F77FBFD3
:1012C0007727089591E001C092E0E5DFE09A8DB3C1
:1012D0008D939A95D1F7089552656C617931206F9D
:1012E0006E0052656C617931204F4646000031290D
:1012F0004F6E3D002020204F66663D002020526545
:101300006C61793D00002020466C61673D00322908
:101310004F6E3D0033294F6E3D002A2A2A2A2A2A81
:101320002A2A2A2A2A2A20434F554E54202A2A2A7A
:101330002A2A2A2A2A2A2A2A2A002A2A2A2A2A2A37
:101340002A2A2A2A2A2A2054494D45202A2A2A2A8A
:0A1350002A2A2A2A2A2A2A2A000043
:00000001FF
