:100000000C942A001895000018950000189500001F
:10001000189500001895000018950000189500002C
:10002000189500001895000018950000189500001C
:10003000189500001895000018950000189500000C
:1000400018950000189500001895000018950000FC
:10005000189500008FE58DBFC0E4E8E34E2E88E0E0
:100060008EBFD8E0F8E05F2EEEEFF7E0A0E6B0E05C
:10007000A89584B7082E877F84BF88E1992781BD22
:1000800091BD88278D933197E9F7662484B7877FE0
:1000900084BF8EE181BD86E081BD81B5886081BD70
:1000A000A8958E9A8C9A8D9A8F9AA59AA79AA19ABA
:1000B000A39AA49AA69AA09AA29A96989498959888
:1000C0009798BC9ABB9ABA9AB898B998BA98BA9ABB
:1000D000BB9ABC9A83E680936900A8E6B0E08C9155
:1000E0008F5F8C938091690081508093690081E0DB
:1000F00090E0A0E6B0E08D939C93A0E6B0E00D9177
:100100001C910C3350E0150718F011F00C9491007D
:100110000E949300A0E6B0E00E94990110F40C94B4
:100120007D000C946D00A8E6B0E00D9111274AE027
:1001300050E00E94C301AAE6B0E04D935C93A8E6AC
:10014000B0E00D9111274AE050E00E94C301ACE6F7
:10015000B0E00D931C93A9E6B0E00D9111274AE0A1
:1001600050E00E94C301AEE6B0E04D935C93A9E677
:10017000B0E00D9111274AE050E00E94C301A0E7D2
:10018000B0E00D931C93969A80916A008093720060
:100190000E94090181E090E00E94E601969883E6C2
:1001A000809372000E940901949A80916C00809360
:1001B00072000E94090181E090E00E94E60194989B
:1001C00083E6809372000E940901959A80916E00E7
:1001D000809372000E94090181E090E00E94E60194
:1001E000959883E6809372000E940901979A809106
:1001F0007000809372000E94090181E090E00E94EB
:10020000E601979883E6809372000E940901A89501
:10021000089500917200003011F00C941601AD9A0F
:10022000AF9AA99AAB9AAC9AAE9AA898009172002C
:10023000013011F00C942301AD98AF9AA99AAB98B4
:10024000AC98AE98A89800917200023011F00C940E
:100250003001AD9AAF9AA998AB9AAC9AAE98A89A89
:1002600000917200033011F00C943D01AD9AAF9AE9
:10027000A99AAB9AAC98AE98A89A009172000430F3
:1002800011F00C944A01AD98AF9AA99AAB98AC982A
:10029000AE9AA89A00917200053011F00C945701A3
:1002A000AD9AAF98A99AAB9AAC98AE9AA89A0091D9
:1002B0007200063011F00C946401AD9AAF98A99ABF
:1002C000AB9AAC9AAE9AA89A00917200073011F0DE
:1002D0000C947101AD9AAF9AA99AAB98AC98AE986C
:1002E000A89800917200083011F00C947E01AD9A2C
:1002F000AF9AA99AAB9AAC9AAE9AA89A009172005A
:10030000093011F00C948B01AD9AAF9AA99AAB9A6F
:10031000AC98AE9AA89A00917200033611F00C9432
:100320009801AD98AF98A998AB98AC98AE98A8985A
:100330000895ED91FC91EF5FFF4FFC93EE930895CC
:1003400000FC10D0089503D01ED001F8F9CF00248E
:10035000E89457FF02C009D0689400F80BD010F859
:100360000124089502D009D00895509540954F5F1B
:100370005F4F0895E89417FF0895009510950F5F5B
:100380001F4F68940895352F242FE894452B11F4BE
:1003900068940895512F402F0027112780E1440FC2
:1003A000551F001F111F021B130B416018F4020F91
:1003B000131F4E7F8A9599F708953197F1F70895A5
:1003C000689462F80895E89462F80895EF93FF93B3
:1003D000EE27E82BE92B31F0EDECFAE03197F1F75D
:0A03E0000197D1F7FF91EF91089506
:00000001FF
