:100000000C942A001895000018950000189500001F
:10001000189500001895000018950000189500002C
:10002000189500000C9434051895000018950000F0
:10003000189500001895000018950000189500000C
:1000400018950000189500001895000018950000FC
:10005000189500008FE58DBFC0E4E8E34E2E88E0E0
:100060008EBFD8E0F8E05F2EEEEFF7E0A0E6B0E05C
:10007000A89584B7082E877F84BF88E1992781BD22
:1000800091BD88278D933197E9F76624D59ADD9A3B
:1000900084B7877F84BF8EE181BD86E081BD81B555
:1000A000886081BDA89580E08FBD84E08EBD89B752
:1000B000846089BF789484E08EBD8E9A8C9A8D9AE4
:1000C0008F9AA59AA79AA19AA39AA49AA69AA09A57
:1000D000A29A9698949895989798D49AD39AD29AE7
:1000E000BF98BE98BD98BA9ABB9ABC9AD79A88987E
:1000F00089988A98E0E0F0E0A4E7B0E00E94E70980
:10010000E2E0F0E0A6E7B0E00E94E709E4E0F0E01A
:10011000A8E7B0E00E94E709E1E0F0E0A5E7B0E081
:100120000E94E709E3E0F0E0A7E7B0E00E94E709FA
:10013000E5E0F0E0A9E7B0E00E94E709DC98DB9891
:10014000DA98AA9884E08EBD0E9411050027A0E3EA
:10015000B0E08C9182FB0EF401E041E0041711F055
:100160000C94F80080E090E0A0E6B0E08D939C93C2
:100170008EB5887F8EBDA0E6B0E00E94C808A89525
:1001800084E690E00E944C098BB390E189278BBBF9
:100190008BB398E089278BBB8BB394E089278BBB0B
:1001A000A0E6B0E00D911C910F3050E0150718F05B
:1001B00011F00C94DD000C94E700DC9ADB9ADA9ADB
:1001C0000E9411050E94AC07AA9A0C941B060027F6
:1001D000A0E3B0E08C9182FB0EF401E040E0041754
:1001E00011F00C94BB0084E08EBDDC98DB98DA98AB
:1001F0000027A6E3B0E08C9187FB0EF401E041E01C
:10020000041711F00C9464010E941105A3E8B0E0FA
:100210000C9100FB00270EF401E041E0041781E09F
:1002200009F080E08F93A3E8B0E00C9101FB002778
:100230000EF401E041E0041781E009F080E09F91B5
:10024000892B882311F40C943B01E894A3E8B0E0D7
:100250008C9180F98C93E894A3E8B0E08C9181F9BB
:100260008C9380E090E0AAE7B0E08D939C93DC98BB
:10027000C2980C944F016894A3E8B0E08C9180F987
:100280008C93E894A3E8B0E08C9181F98C93A5E776
:10029000B0E08C91AAE7B0E08D9388278C938AE038
:1002A00090E00E944C09A8950027A6E3B0E08C914D
:1002B00087FB0EF401E040E0041711F00C944F01AD
:1002C00080E991E00E944C090027A6E3B0E08C9100
:1002D00086FB0EF401E041E0041711F00C94D0010C
:1002E0000E941105A3E8B0E00C9102FB00270EF478
:1002F00001E041E0041781E009F080E08F93A3E87A
:10030000B0E00C9103FB00270EF401E041E004177C
:1003100081E009F080E09F91892B882311F40C94EF
:10032000A701E894A3E8B0E08C9182F98C93E8945B
:10033000A3E8B0E08C9183F98C9380E090E0ACE787
:10034000B0E08D939C93DB98C3980C94BB016894A8
:10035000A3E8B0E08C9182F98C93E894A3E8B0E034
:100360008C9183F98C93A7E7B0E08C91ACE7B0E077
:100370008D9388278C938AE090E00E944C09A89581
:100380000027A6E3B0E08C9186FB0EF401E040E08C
:10039000041711F00C94BB0180E991E00E944C0914
:1003A0000027A6E3B0E08C9185FB0EF401E041E06C
:1003B000041711F00C943C020E941105A3E8B0E070
:1003C0000C9104FB00270EF401E041E0041781E0EA
:1003D00009F080E08F93A3E8B0E00C9105FB0027C3
:1003E0000EF401E041E0041781E009F080E09F9104
:1003F000892B882311F40C941302E894A3E8B0E04D
:100400008C9184F98C93E894A3E8B0E08C9185F901
:100410008C9380E090E0AEE7B0E08D939C93DA9807
:10042000C4980C9427026894A3E8B0E08C9184F9F6
:100430008C93E894A3E8B0E08C9185F98C93A9E7BC
:10044000B0E08C91AEE7B0E08D9388278C938AE082
:1004500090E00E944C09A8950027A6E3B0E08C919B
:1004600085FB0EF401E040E0041711F00C94270224
:1004700080E991E00E944C09AAE7B0E00D911C913F
:10048000003050E0150711F00C94BF02A3E8B0E073
:100490000C9100FB00270EF401E040E0041781E01E
:1004A00009F080E08F93A3E8B0E00C9101FB0027F6
:1004B0000EF401E041E0041781E009F080E09F9133
:1004C0008923882311F40C947902C298E894A3E854
:1004D000B0E08C9180F98C93E894A3E8B0E08C9123
:1004E00081F98C93DC98E2EEF3E10E9438090E94D6
:1004F0004009A3E8B0E00C9100FB00270EF401E0F6
:1005000041E0041781E009F080E08F93A3E8B0E0B8
:100510000C9101FB00270EF401E040E0041781E09C
:1005200009F080E09F918923882311F40C94BF0285
:10053000C29AA4E7B0E00D9111274CE350E00E946D
:100540005B09AAE7B0E00D931C93E894A3E8B0E040
:100550008C9180F98C936894A3E8B0E08C9181F938
:100560008C93EEEEF3E10E943809A0E2B8E0EAE7EE
:10057000F0E00E9477090E9444090E944009ACE71C
:10058000B0E00D911C91003050E0150711F00C9473
:100590004203A3E8B0E00C9102FB00270EF401E057
:1005A00040E0041781E009F080E08F93A3E8B0E019
:1005B0000C9103FB00270EF401E041E0041781E0F9
:1005C00009F080E09F918923882311F40C94FC02A8
:1005D000C398DB98E894A3E8B0E08C9182F98C93FF
:1005E000E894A3E8B0E08C9183F98C93ECEFF3E10D
:1005F0000E9438090E944009A3E8B0E00C9102FB78
:1006000000270EF401E041E0041781E009F080E0EA
:100610008F93A3E8B0E00C9103FB00270EF401E0F8
:1006200040E0041781E009F080E09F91892388234E
:1006300011F40C944203C39AA6E7B0E00D91112780
:100640004CE350E00E945B09ACE7B0E00D931C93D3
:10065000E894A3E8B0E08C9182F98C936894A3E8C5
:10066000B0E08C9183F98C93E8E0F4E10E943809C2
:10067000A0E2B8E0ECE7F0E00E9477090E944409AC
:100680000E944009AEE7B0E00D911C91003050E0AF
:10069000150711F00C94C503A3E8B0E00C9104FB1E
:1006A00000270EF401E040E0041781E009F080E04B
:1006B0008F93A3E8B0E00C9105FB00270EF401E056
:1006C00041E0041781E009F080E09F9189238823AD
:1006D00011F40C947F03C498DA98E894A3E8B0E08E
:1006E0008C9184F98C93E894A3E8B0E08C9185F91F
:1006F0008C93E6E1F4E10E9438090E944009A3E8E6
:10070000B0E00C9104FB00270EF401E041E0041777
:1007100081E009F080E08F93A3E8B0E00C9105FB45
:1007200000270EF401E040E0041781E009F080E0CA
:100730009F918923882311F40C94C503C49AA8E7D8
:10074000B0E00D9111274CE350E00E945B09AEE749
:10075000B0E00D931C93E894A3E8B0E08C9184F989
:100760008C936894A3E8B0E08C9185F98C93E2E2D5
:10077000F4E10E943809A0E2B8E0EEE7F0E00E9460
:1007800077090E9444090E9440090027A0E3B0E0D5
:100790008C9180FB0EF401E041E0041711F00C9401
:1007A0009E04E0E3F4E10E9438090E944009E0E57C
:1007B000F4E10E943809E6E5F4E10E943809A0E27C
:1007C000B8E0EAE7F0E00E9477090E944409EEE50C
:1007D000F4E10E943809A8E3B0E08C9182FBA0E22A
:1007E000B8E00E9465098D9388278C930E94440984
:1007F000E8E6F4E10E943809A3E8B0E08C9180FBC0
:10080000A0E2B8E00E9465098D9388278C930E942E
:100810004409A3E8B0E08C9181FBA0E2B8E00E941B
:1008200065098D9388278C930E9444090E94400992
:10083000E0E7F4E10E943809E6E5F4E10E943809B6
:10084000A0E2B8E0ECE7F0E00E9477090E944409DA
:10085000EEE5F4E10E943809A8E3B0E08C9183FB57
:10086000A0E2B8E00E9465098D9388278C930E94CE
:100870004409E8E6F4E10E943809A3E8B0E08C916D
:1008800082FBA0E2B8E00E9465098D9388278C93D3
:100890000E944409A3E8B0E08C9183FBA0E2B8E099
:1008A0000E9465098D9388278C930E9444090E94B9
:1008B0004009E6E7F4E10E943809E6E5F4E10E9428
:1008C0003809A0E2B8E0EEE7F0E00E9477090E9464
:1008D0004409EEE5F4E10E943809A8E3B0E08C9108
:1008E00084FBA0E2B8E00E9465098D9388278C9371
:1008F0000E944409E8E6F4E10E943809A3E8B0E068
:100900008C9184FBA0E2B8E00E9465098D93882752
:100910008C930E944409A3E8B0E08C9185FBA0E28F
:10092000B8E00E9465098D9388278C930E94440942
:100930000E94400984EF91E00E944C090027A0E347
:10094000B0E08C9181FB0EF401E041E0041711F05E
:100950000C940205ECE7F4E10E9438090E9440097A
:10096000E0E5F4E10E943809A0E2B8E0E5E7F0E054
:100970000E9486090E944409E6E5F4E10E943809D4
:10098000A0E2B8E0E4E7F0E00E9486090E94440992
:100990000E944009E0E7F4E10E943809A0E2B8E0D3
:1009A000E7E7F0E00E9486090E944409E6E5F4E1E9
:1009B0000E943809A0E2B8E0E6E7F0E00E9486096C
:1009C0000E9444090E944009E6E7F4E10E943809C8
:1009D000A0E2B8E0E9E7F0E00E9486090E9444093D
:1009E000E6E5F4E10E943809A0E2B8E0E8E7F0E0CB
:1009F0000E9486090E9444090E94400984EF91E008
:100A00000E944C0981E090E00E944C09A89580E08A
:100A100080936A0080E0809369000E94C2070C9472
:100A2000A60081E090E0A0E6B0E08D939C93A0E664
:100A3000B0E00D911C91033050E0150718F011F053
:100A40000C943305DF9A8CE390E00E944C09DF9808
:100A50008CE390E00E944C09A0E6B0E00E94C80838
:100A600010F40C94170508950F921F922F923F9245
:100A70004F925F927F92AF92BF920F931F932F93EB
:100A80003F934F935F936F937F938F939F93AF9316
:100A9000BF93CF93DF93EF93FF938FB78F938FE342
:100AA00097E59DBD8CBDA8E6B0E08C9187FB8827BB
:100AB00080F9809580FBA8E6B0E08C9187F98C9353
:100AC00000918000003011F00C947A058CE3809343
:100AD0008000AAE7B0E00D911C91003050E01507AE
:100AE00018F011F00C9476050C947A05AAE7B0E0A2
:100AF0000E94CF08809180008150809380000091F7
:100B00008100003011F00C9499058CE380938100F2
:100B1000ACE7B0E00D911C91003050E0150718F0E3
:100B200011F00C9495050C949905ACE7B0E00E9487
:100B3000CF088091810081508093810000918200D4
:100B4000003011F00C94B8058CE380938200AEE77E
:100B5000B0E00D911C91003050E0150718F011F035
:100B60000C94B4050C94B805AEE7B0E00E94CF0831
:100B700080918200815080938200AAE7B0E00D91BD
:100B80001C91003050E0150718F011F00C94CA05C4
:100B90000C94D305A8E6B0E08C9187FBABE3B0E002
:100BA0008C9184F98C93ACE7B0E00D911C910030EE
:100BB00050E0150718F011F00C94E0050C94E905CD
:100BC000A8E6B0E08C9187FBABE3B0E08C9183F9B1
:100BD0008C93AEE7B0E00D911C91003050E015070A
:100BE00018F011F00C94F6050C94FF05A8E6B0E09F
:100BF0008C9187FBABE3B0E08C9182F98C938F9161
:100C00008FBFFF91EF91DF91CF91BF91AF919F91F6
:100C10008F917F916F915F914F913F912F911F9194
:100C20000F91BF90AF907F905F904F903F902F902B
:100C30001F900F901895DC9ADB98DA9880E08093EB
:100C400069008091750080936A000E94AA068091D5
:100C50006A0080937500E1E0F0E0AAE6B0E07BE78F
:100C60000E94D6090E94AC078091740080936900AD
:100C700080E080936A000E942B0780916900809336
:100C80007400E0E0F0E0A9E6B0E07BE70E94D6095E
:100C90000E94AC07DC98DB9ADA9880E080936900C8
:100CA0008091770080936A000E94AA0680916A0072
:100CB00080937700E3E0F0E0AAE6B0E07BE70E94F3
:100CC000D6090E94AC07809176008093690080E08D
:100CD00080936A000E942B078091690080937600C0
:100CE000E2E0F0E0A9E6B0E07BE70E94D6090E94CE
:100CF000AC07DC98DB98DA9A80E0809369008091F9
:100D0000790080936A000E94AA0680916A0080930D
:100D10007900E5E0F0E0AAE6B0E07BE70E94D609C2
:100D20000E94AC07809178008093690080E08093F6
:100D30006A000E942B078091690080937800E4E0AC
:100D4000F0E0A9E6B0E07BE70E94D6090E94AC077C
:100D50000C949E000E94C2070027A0E3B0E08C9193
:100D600080FB0EF401E041E0041711F00C94E3065F
:100D7000AAE6B0E08C918F5F8C9300916A000B33F0
:100D800018F011F00C94C6060C94C90681E080930B
:100D90006A0081E090E0A0E6B0E08D939C93A0E62D
:100DA000B0E00D911C91083250E0150718F011F0D9
:100DB0000C94E3060E94C207A0E6B0E00E94C808B7
:100DC00010F40C94CF060027A0E3B0E08C9181FBD7
:100DD0000EF401E041E0041711F00C941A07809121
:100DE0006A00815080936A0000916A000B3318F00A
:100DF00011F00C94FD060C9400078BE380936A00BD
:100E000081E090E0A0E6B0E08D939C93A0E6B0E096
:100E10000D911C91083250E0150718F011F00C9458
:100E20001A070E94C207A0E6B0E00E94C80810F4AA
:100E30000C9406070027A0E3B0E08C9182FB0EF42F
:100E400001E041E0041711F00C9428070C942A07E4
:100E50000C94AA0608950E94C2070027A0E3B0E000
:100E60008C9180FB0EF401E041E0041711F00C942A
:100E70006407A9E6B0E08C918F5F8C9300916900C4
:100E80000B3318F011F00C9447070C944A0781E0DB
:100E90008093690081E090E0A0E6B0E08D939C93A0
:100EA000A0E6B0E00D911C91083250E0150718F053
:100EB00011F00C9464070E94C207A0E6B0E00E9403
:100EC000C80810F40C9450070027A0E3B0E08C9100
:100ED00081FB0EF401E041E0041711F00C949B0734
:100EE00080916900815080936900009169000B3303
:100EF00018F011F00C947E070C9481078BE380931B
:100F0000690081E090E0A0E6B0E08D939C93A0E6BC
:100F1000B0E00D911C91083250E0150718F011F067
:100F20000C949B070E94C207A0E6B0E00E94C8088C
:100F300010F40C9487070027A0E3B0E08C9182FBAB
:100F40000EF401E041E0041711F00C94A9070C9491
:100F5000AB070C942B0708958AE090E00E944C099F
:100F6000A8950027A0E3B0E08C9182FB0EF401E08D
:100F700040E0041711F00C94AC078CE291E00E9461
:100F80004C090895A9E6B0E00D9111274AE050E020
:100F90000E94FC08ABE6B0E04D935C93A9E6B0E09C
:100FA0000D9111274AE050E00E94FC08ADE6B0E048
:100FB0000D931C93AAE6B0E00D9111274AE050E092
:100FC0000E94FC08AFE6B0E04D935C93AAE6B0E067
:100FD0000D9111274AE050E00E94FC08A1E7B0E023
:100FE0000D931C93969A80916B00809373000E94DE
:100FF000380881E090E00E944C09969883E680933F
:1010000073000E943808949A80916D008093730059
:101010000E94380881E090E00E944C09949883E691
:10102000809373000E943808959A80916F00809396
:1010300073000E94380881E090E00E944C09959866
:1010400083E6809373000E943808979A809171001C
:10105000809373000E94380881E090E00E944C0960
:10106000979883E6809373000E943808A8950895A6
:1010700000917300003011F00C944508AD9AAF9ABE
:10108000A99AAB9AAC9AAE9AA898009173000130D5
:1010900011F00C945208AD98AF9AA99AAB98AC98FD
:1010A000AE98A89800917300023011F00C945F087C
:1010B000AD9AAF9AA998AB9AAC9AAE98A89A0091BB
:1010C0007300033011F00C946C08AD9AAF9AA99A92
:1010D000AB9AAC98AE98A89A00917300043011F0C6
:1010E0000C947908AD98AF9AA99AAB98AC98AE9A3F
:1010F000A89A00917300053011F00C948608AD9AFF
:10110000AF98A99AAB9AAC98AE9AA89A009173003E
:10111000063011F00C949308AD9AAF98A99AAB9A47
:10112000AC9AAE9AA89A00917300073011F00C9413
:10113000A008AD9AAF9AA99AAB98AC98AE98A89827
:1011400000917300083011F00C94AD08AD9AAF9A7D
:10115000A99AAB9AAC9AAE9AA89A009173000930FA
:1011600011F00C94BA08AD9AAF9AA99AAB9AAC98C0
:10117000AE9AA89A00917300033611F00C94C70838
:10118000AD98AF98A998AB98AC98AE98A8980895E8
:10119000ED91FC91EF5FFF4FFC93EE930895ED917D
:1011A000FC91E150F040FC93EE93089509D00E9429
:1011B0005B0900FC10D0089503D01ED001F8F9CFD0
:1011C0000024E89457FF02C009D0689400F80BD0BF
:1011D00010F80124089502D009D008955095409543
:1011E0004F5F5F4F0895E89417FF0895009510959D
:1011F0000F5F1F4F68940895352F242FE894452BD7
:1012000011F468940895512F402F0027112780E191
:10121000440F551F001F111F021B130B416018F4D0
:10122000020F131F4E7F8A9599F708953197F1F7B2
:101230000895689462F80895E89462F808958F9389
:101240009F938BE890E00197F1F79F918F9108951C
:1012500080952AE090E0089410F4DD9802C0DD9AB1
:101260000000EDDFECDF969587952A95A9F70895A4
:10127000C895802D882319F0EBDF3196F9CF0895BA
:101280008DE0E6DF8AE0E4CFA0E2B8E08D9188232C
:1012900011F0DEDFFBCF0895EF93FF93EE27E82BED
:1012A000E92B31F0EDECFAE03197F1F70197D1F746
:1012B000FF91EF9108950F92B801469F8001479FDB
:1012C000100D569F100D0F90089580E30EF4839536
:1012D0000895000F111F221F331F089500951095C8
:1012E000209530950F5F1F4F2F4F3F4F089501916D
:1012F00010810EC001911191219130810BC001919B
:10130000108117FF05C03FEF2FEF04C000811127A8
:101310002227332737FF03C0E1DF8DE28D93CF9380
:10132000DF93CF92DF92EF92AA24BB24CC24DD245A
:10133000EE2440E2CAE0DD2755E093E38881890F7F
:1013400087FD9F7083FD907F891B89935A95A9F72C
:10135000C0DFAA1CBB1CCC1CDD1CEE1C4A9551F73F
:10136000E894EFE0FF2782910ED0EB30E0F71EF01B
:1013700068948A2D0CD088278D93EF90DF90CF90C2
:10138000DF91CF910895982F829501D0892F8F708A
:10139000805D26F0803309F4089568948D93089554
:1013A000E199FECFEEBBFFBB3196089591E001C0FD
:1013B00092E07B3751F47FB7F894F2DF8D918DBBCB
:1013C000E29AE19A9A95C9F77FBF7727089591E04D
:1013D00001C092E0E5DFE09A8DB38D939A95D1F745
:1013E000089552656C6179313D6F66660000526503
:1013F0006C6179313D6F6E2020543D0052656C6107
:1014000079323D6F6666000052656C6179323D6FDE
:101410006E2020543D0052656C6179333D6F6666E5
:10142000000052656C6179333D6F6E2020543D00A1
:101430002A2A2A2A2A2A2A2A2A2A2A2A20434F55AD
:101440004E54202A2A2A2A2A2A2A2A2A2A2A2A00E2
:1014500031294F6E3D002020204F66663D00202040
:1014600052656C61793D00002020466C61673D004B
:1014700032294F6E3D0033294F6E3D002A2A2A2A19
:101480002A2A2A2A2A2A2A2A2054494D45202A2A49
:0C1490002A2A2A2A2A2A2A2A2A2A0000AC
:00000001FF
