:100000000C942A001895000018950000189500001F
:10001000189500001895000018950000189500002C
:10002000189500000C941005189500001895000014
:10003000189500001895000018950000189500000C
:1000400018950000189500001895000018950000FC
:10005000189500008FE58DBFC0E4E8E34E2E88E0E0
:100060008EBFD8E0F8E05F2EEEEFF7E0A0E6B0E05C
:10007000A89584B7082E877F84BF88E1992781BD22
:1000800091BD88278D933197E9F76624D59ADD9A3B
:1000900084B7877F84BF8EE181BD86E081BD81B555
:1000A000886081BDA89580E08FBD84E08EBD89B752
:1000B000846089BF789484E08EBD8E9A8C9A8D9AE4
:1000C0008F9AA59AA79AA19AA39AA49AA69AA09A57
:1000D000A29A9698949895989798D49AD39AD29AE7
:1000E000BF98BE98BD98BA9ABB9ABC9A88988998CE
:1000F0008A98E0E0F0E0A3E7B0E00E948709E2E040
:10010000F0E0A5E7B0E00E948709E4E0F0E0A7E7AF
:10011000B0E00E948709E1E0F0E0A4E7B0E00E94CF
:100120008709E3E0F0E0A6E7B0E00E948709E5E098
:10013000F0E0A8E7B0E00E948709DC98DB98DA9845
:1001400084E08EBD0027A0E3B0E08C9182FB0EF42A
:1001500001E041E0041711F00C94EF0080E090E022
:10016000A0E6B0E08D939C938EB5887F8EBDA0E60F
:10017000B0E00E947C08A89584E690E00E94F60812
:100180008BB390E189278BBB8BB398E089278BBB1E
:100190008BB394E089278BBBA0E6B0E00D911C9156
:1001A0000F3050E0150718F011F00C94D9000C94A2
:1001B000E000DC9ADB9ADA9A0E9460070C94CF0583
:1001C0000027A0E3B0E08C9182FB0EF401E040E058
:1001D000041711F00C94B700DC98DB98DA9800272C
:1001E000A6E3B0E08C9187FB0EF401E041E0041738
:1001F00011F00C94510100917C00003080E010F06F
:1002000009F081E08F9300917900003080E010F0D8
:1002100009F081E09F91892B882311F40C9425012A
:1002200080E08093790080E080937C00C298E8941D
:10023000A2E8B0E08C9180F98C93E894A2E8B0E059
:100240008C9181F98C930C943C010091730041E0F6
:10025000040FA9E7B0E00C938091740080937C00B8
:100260006894A2E8B0E08C9180F98C93E894A2E8BD
:10027000B0E08C9181F98C938AE090E00E94F608BE
:10028000A8950027A6E3B0E08C9187FB0EF401E06F
:1002900040E0041711F00C943C0180E991E00E94C9
:1002A000F6080027A6E3B0E08C9186FB0EF401E08F
:1002B00041E0041711F00C94B30100917D0000306F
:1002C00080E010F009F081E08F9300917A00003017
:1002D00080E010F009F081E09F91892B882311F4D0
:1002E0000C94870180E080937A0080E080937D0009
:1002F000C398E894A2E8B0E08C9182F98C93E894DA
:10030000A2E8B0E08C9183F98C930C949E0100914B
:10031000730041E0040FAAE7B0E00C9380917400F1
:1003200080937D006894A2E8B0E08C9182F98C9370
:10033000E894A2E8B0E08C9183F98C938AE090E095
:100340000E94F608A8950027A6E3B0E08C9186FBF2
:100350000EF401E040E0041711F00C949E0180E9D6
:1003600091E00E94F6080027A6E3B0E08C9185FB9F
:100370000EF401E041E0041711F00C941502009115
:100380007E00003080E010F009F081E08F93009152
:100390007B00003080E010F009F081E09F91892B14
:1003A000882311F40C94E90180E080937B0080E0C5
:1003B00080937E00C498E894A2E8B0E08C9184F920
:1003C0008C93E894A2E8B0E08C9185F98C930C941E
:1003D00000020091770041E0040FABE7B0E00C931E
:1003E0008091780080937E006894A2E8B0E08C91C0
:1003F00084F98C93E894A2E8B0E08C9185F98C9311
:100400008AE090E00E94F608A8950027A6E3B0E0F5
:100410008C9185FB0EF401E040E0041711F00C9480
:10042000000280E991E00E94F60800917C00003013
:1004300081E009F080E08F93A2E8B0E00C9100FB2E
:1004400000270EF401E040E0041781E009F080E0AD
:100450009F9189238F93A2E8B0E00C9101FB0027C4
:100460000EF401E041E0041781E009F080E09F9183
:100470008923882311F40C945F02809179008150C4
:10048000809379008CE380937C00009179000030A8
:1004900011F00C945F02E894A2E8B0E08C9180F92E
:1004A0008C93E894A2E8B0E08C9181F98C93C29887
:1004B000DC98E2E2F3E10E94E2080E94EA0800917F
:1004C0007C00003081E009F080E08F93A2E8B0E08A
:1004D0000C9100FB00270EF401E041E0041781E0DD
:1004E00009F080E09F9189238F93A2E8B0E00C91FE
:1004F00001FB00270EF401E040E0041781E009F061
:1005000080E09F918923882311F40C949A02E89447
:10051000A2E8B0E08C9180F98C936894A2E8B0E0F6
:100520008C9181F98C93C29AEEE2F3E10E94E20889
:100530000E94EA0800917D00003081E009F080E02F
:100540008F93A2E8B0E00C9102FB00270EF401E0CB
:1005500040E0041781E009F080E09F9189238F93A8
:10056000A2E8B0E00C9103FB00270EF401E041E0AB
:10057000041781E009F080E09F918923882311F41A
:100580000C94E40280917A00815080937A008CE38D
:1005900080937D0000917A00003011F00C94E40209
:1005A000E894A2E8B0E08C9182F98C93E894A2E8F8
:1005B000B0E08C9183F98C93C398DB98E8E3F3E186
:1005C0000E94E2080E94EA0800917D00003081E06C
:1005D00009F080E08F93A2E8B0E00C9102FB0027C5
:1005E0000EF401E041E0041781E009F080E09F9102
:1005F00089238F93A2E8B0E00C9103FB00270EF44F
:1006000001E040E0041781E009F080E09F91892338
:10061000882311F40C941F03E894A2E8B0E08C91B5
:1006200082F98C936894A2E8B0E08C9183F98C9362
:10063000C39AE4E4F3E10E94E2080E94EA08009110
:100640007E00003081E009F080E08F93A2E8B0E006
:100650000C9104FB00270EF401E040E0041781E058
:1006600009F080E09F9189238F93A2E8B0E00C917C
:1006700005FB00270EF401E041E0041781E009F0DA
:1006800080E09F918923882311F40C946903809161
:100690007B00815080937B008CE380937E000091EF
:1006A0007B00003011F00C946903E894A2E8B0E0FC
:1006B0008C9184F98C93E894A2E8B0E08C9185F950
:1006C0008C93C498DA98EEE4F3E10E94E2080E9469
:1006D000EA0800917E00003081E009F080E08F930D
:1006E000A2E8B0E00C9104FB00270EF401E041E029
:1006F000041781E009F080E09F9189238F93A2E89D
:10070000B0E00C9105FB00270EF401E040E0041777
:1007100081E009F080E09F918923882311F40C94F3
:10072000A403E894A2E8B0E08C9184F98C936894D7
:10073000A2E8B0E08C9185F98C93C49AEAE5F3E1E4
:100740000E94E2080E94EA080027A0E3B0E08C9132
:1007500080FB0EF401E041E0041711F00C949904C1
:100760000E94EA080E94EA08E4E6F3E10E94E20837
:10077000A0E2B8E0ECE7F0E00E9426090E94EE0853
:10078000EAE6F3E10E94E208A0E2B8E0E9E7F0E07F
:100790000E9426090E94EE08E2E7F3E10E94E208C7
:1007A000A8E3B0E08C9182FBA0E2B8E00E940509CA
:1007B0008D9388278C930E94EE08ECE7F3E10E946A
:1007C000E208A2E8B0E08C9180FBA0E2B8E00E94D1
:1007D00005098D9388278C930E94EE08A2E8B0E06B
:1007E0008C9181FBA0E2B8E00E9405098D938827D7
:1007F0008C930E94EE080E94EA08E4E8F3E10E946C
:10080000E208A0E2B8E0EDE7F0E00E9426090E94CD
:10081000EE08EAE6F3E10E94E208A0E2B8E0EAE7C7
:10082000F0E00E9426090E94EE08E2E7F3E10E9450
:10083000E208A8E3B0E08C9183FBA0E2B8E00E945C
:1008400005098D9388278C930E94EE08ECE7F3E16D
:100850000E94E208A2E8B0E08C9182FBA0E2B8E03E
:100860000E9405098D9388278C930E94EE08A2E8C8
:10087000B0E08C9183FBA0E2B8E00E9405098D9363
:1008800088278C930E94EE080E94EA08EAE8F3E1C8
:100890000E94E208A0E2B8E0EEE7F0E00E9426093C
:1008A0000E94EE08EAE6F3E10E94E208A0E2B8E066
:1008B000EBE7F0E00E9426090E94EE08E2E7F3E190
:1008C0000E94E208A8E3B0E08C9184FBA0E2B8E0CB
:1008D0000E9405098D9388278C930E94EE08ECE70F
:1008E000F3E10E94E208A2E8B0E08C9184FBA0E270
:1008F000B8E00E9405098D9388278C930E94EE082A
:10090000A2E8B0E08C9185FBA0E2B8E00E94050966
:100910008D9388278C930E94EE080E94EA08E0E9F4
:10092000F3E10E94E2080E94EA0884EF91E00E944D
:10093000F6080027A0E3B0E08C9181FB0EF401E003
:1009400041E0041711F00C94FF040E94EA08E4E669
:10095000F3E10E94E208A0E2B8E0E4E7F0E00E94E0
:1009600026090E94EE08EAE6F3E10E94E208A0E20E
:10097000B8E0E3E7F0E00E9426090E94EE080E943A
:10098000EA08E4E8F3E10E94E208A0E2B8E0E6E762
:10099000F0E00E9426090E94EE08EAE6F3E10E94D8
:1009A000E208A0E2B8E0E5E7F0E00E9426090E9434
:1009B000EE080E94EA08EAE8F3E10E94E208A0E2F9
:1009C000B8E0E8E7F0E00E9426090E94EE08EAE6B7
:1009D000F3E10E94E208A0E2B8E0E7E7F0E00E945D
:1009E00026090E94EE080E94EA08E0EBF3E10E946B
:1009F000E2080E94EA0884EF91E00E94F608A895B8
:100A000081E090E00E94F60880917C00809369006C
:100A100080917900809368000E9476070C94A20070
:100A20000F921F922F923F924F925F927F92AF92BE
:100A3000BF920F931F932F933F934F935F936F93A7
:100A40007F938F939F93AF93BF93CF93DF93EF9356
:100A5000FF938FB78F938FE397E59DBD8CBDAFE775
:100A6000B0E08C918F5F8C9300917F000C3318F075
:100A700011F00C943D050C944E0580E080937F00AE
:100A800000917C00003018F011F00C9449050C9492
:100A90004E0580917C00815080937C00A0E8B0E0FE
:100AA0008C918F5F8C93009180000C3318F011F0C3
:100AB0000C945C050C946D0580E08093800000919F
:100AC0007D00003018F011F00C9468050C946D0551
:100AD00080917D00815080937D00A1E8B0E08C91F1
:100AE0008F5F8C93009181000C3318F011F00C94FF
:100AF0007B050C948C0580E08093810000917E0042
:100B0000003018F011F00C9487050C948C0580913E
:100B10007E00815080937E0000917C00003018F0B0
:100B200011F00C9495050C9499058BB390E18927ED
:100B30008BBB00917D00003018F011F00C94A205E1
:100B40000C94A6058BB398E089278BBB00917E009F
:100B5000003018F011F00C94AF050C94B3058BB372
:100B600094E089278BBB8F918FBFFF91EF91DF912D
:100B7000CF91BF91AF919F918F917F916F915F9135
:100B80004F913F912F911F910F91BF90AF907F9008
:100B90005F904F903F902F901F900F901895DC9A88
:100BA000DB98DA9880E080936800809174008093ED
:100BB00069000E945E068091690080937400E1E004
:100BC000F0E0A9E6B0E07BE70E9476090E946007AA
:100BD000809173008093680080E0809369000E9498
:100BE000DF068091680080937300E0E0F0E0A8E603
:100BF000B0E07BE70E9476090E946007DC98DB9AF0
:100C0000DA9880E080936800809176008093690094
:100C10000E945E068091690080937600E3E0F0E038
:100C2000A9E6B0E07BE70E9476090E946007809108
:100C300075008093680080E0809369000E94DF0661
:100C40008091680080937500E2E0F0E0A8E6B0E0F3
:100C50007BE70E9476090E946007DC98DB98DA9AAD
:100C600080E08093680080917800809369000E9402
:100C70005E068091690080937800E5E0F0E0A9E6E7
:100C8000B0E07BE70E9476090E94600780917700C0
:100C90008093680080E0809369000E94DF06809165
:100CA000680080937700E4E0F0E0A8E6B0E07BE73E
:100CB0000E9476090E9460070C949D000E947607AE
:100CC0000027A0E3B0E08C9180FB0EF401E041E04E
:100CD000041711F00C949706A9E6B0E08C918F5F91
:100CE0008C93009169000B3318F011F00C947A0684
:100CF0000C947D0681E08093690081E090E0A0E69D
:100D0000B0E08D939C93A0E6B0E00D911C91083269
:100D100050E0150718F011F00C9497060E94760722
:100D2000A0E6B0E00E947C0810F40C948306002733
:100D3000A0E3B0E08C9181FB0EF401E041E00417E8
:100D400011F00C94CE068091690081508093690067
:100D5000009169000B3318F011F00C94B1060C945B
:100D6000B4068BE38093690081E090E0A0E6B0E0F8
:100D70008D939C93A0E6B0E00D911C91083250E059
:100D8000150718F011F00C94CE060E947607A0E625
:100D9000B0E00E947C0810F40C94BA060027A0E38F
:100DA000B0E08C9182FB0EF401E041E0041711F0F9
:100DB0000C94DC060C94DE060C945E0608950E94EA
:100DC00076070027A0E3B0E08C9180FB0EF401E0F1
:100DD00041E0041711F00C941807A8E6B0E08C91DC
:100DE0008F5F8C93009168000B3318F011F00C9416
:100DF000FB060C94FE0681E08093680081E090E0A1
:100E0000A0E6B0E08D939C93A0E6B0E00D911C911C
:100E1000083250E0150718F011F00C9418070E94E2
:100E20007607A0E6B0E00E947C0810F40C9404075A
:100E30000027A0E3B0E08C9181FB0EF401E041E0DB
:100E4000041711F00C944F07809168008150809333
:100E50006800009168000B3318F011F00C94320711
:100E60000C9435078BE38093680081E090E0A0E666
:100E7000B0E08D939C93A0E6B0E00D911C910832F8
:100E800050E0150718F011F00C944F070E947607F8
:100E9000A0E6B0E00E947C0810F40C943B07002709
:100EA000A0E3B0E08C9182FB0EF401E041E0041776
:100EB00011F00C945D070C945F070C94DF06089505
:100EC0008AE090E00E94F608A8950027A0E3B0E031
:100ED0008C9182FB0EF401E040E0041711F00C94B9
:100EE00060078CE291E00E94F6080895A8E6B0E061
:100EF0000D9111274AE050E00E94A608AAE6B0E052
:100F00004D935C93A8E6B0E00D9111274AE050E0C4
:100F10000E94A608ACE6B0E00D931C93A9E6B0E0F1
:100F20000D9111274AE050E00E94A608AEE6B0E01D
:100F30004D935C93A9E6B0E00D9111274AE050E093
:100F40000E94A608A0E7B0E00D931C93969A8091AA
:100F50006A00809372000E94EC0781E090E00E949A
:100F6000F608969883E6809372000E94EC07949AA4
:100F700080916C00809372000E94EC0781E090E009
:100F80000E94F608949883E6809372000E94EC0712
:100F9000959A80916E00809372000E94EC0781E028
:100FA00090E00E94F608959883E6809372000E9474
:100FB000EC07979A80917000809372000E94EC0772
:100FC00081E090E00E94F608979883E68093720093
:100FD0000E94EC07A895089500917200003011F06E
:100FE0000C94F907AD9AAF9AA99AAB9AAC9AAE9ABB
:100FF000A89800917200013011F00C940608AD9889
:10100000AF9AA99AAB98AC98AE98A8980091720044
:10101000023011F00C941308AD9AAF9AA998AB9ACC
:10102000AC9AAE98A89A00917200033011F00C941B
:101030002008AD9AAF9AA99AAB9AAC98AE98A89AA4
:1010400000917200043011F00C942D08AD98AF9A05
:10105000A99AAB98AC98AE9AA89A00917200053004
:1010600011F00C943A08AD9AAF98A99AAB9AAC9843
:10107000AE9AA89A00917200063011F00C944708BD
:10108000AD9AAF98A99AAB9AAC9AAE9AA89A0091E9
:101090007200073011F00C945408AD9AAF9AA99AD7
:1010A000AB98AC98AE98A89800917200083011F0F7
:1010B0000C946108AD9AAF9AA99AAB9AAC9AAE9A81
:1010C000A89A00917200093011F00C946E08AD9A44
:1010D000AF9AA99AAB9AAC98AE9AA89A009172006E
:1010E000033611F00C947B08AD98AF98A998AB9893
:1010F000AC98AE98A8980895ED91FC91EF5FFF4FE2
:10110000FC93EE93089500FC10D0089503D01ED0F8
:1011100001F8F9CF0024E89457FF02C009D0689481
:1011200000F80BD010F80124089502D009D00895DA
:10113000509540954F5F5F4F0895E89417FF0895CD
:10114000009510950F5F1F4F68940895352F242F39
:10115000E894452B11F468940895512F402F0027EF
:10116000112780E1440F551F001F111F021B130B95
:10117000416018F4020F131F4E7F8A9599F7089566
:101180003197F1F70895689462F80895E89462F849
:1011900008958F939F938BE890E00197F1F79F91CB
:1011A0008F91089580952AE090E0089410F4DD98DE
:1011B00002C0DD9A0000EDDFECDF969587952A9559
:1011C000A9F70895C895802D882319F0EBDF319693
:1011D000F9CF08958DE0E6DF8AE0E4CFA0E2B8E041
:1011E0008D91882311F0DEDFFBCF0895EF93FF93FD
:1011F000EE27E82BE92B31F0EDECFAE03197F1F72F
:101200000197D1F7FF91EF91089580E30EF4839554
:101210000895000F111F221F331F08950095109588
:10122000209530950F5F1F4F2F4F3F4F089501912D
:1012300010810EC001911191219130810BC001915B
:10124000108117FF05C03FEF2FEF04C00081112769
:101250002227332737FF03C0E1DF8DE28D93CF9341
:10126000DF93CF92DF92EF92AA24BB24CC24DD241B
:10127000EE2440E2CAE0DD2755E093E38881890F40
:1012800087FD9F7083FD907F891B89935A95A9F7ED
:10129000C0DFAA1CBB1CCC1CDD1CEE1C4A9551F700
:1012A000E894EFE0FF2782910ED0EB30E0F71EF0DC
:1012B00068948A2D0CD088278D93EF90DF90CF9083
:1012C000DF91CF910895982F829501D0892F8F704B
:1012D000805D26F0803309F4089568948D93089515
:1012E000E199FECFEEBBFFBB3196089591E001C0BE
:1012F00092E07B3751F47FB7F894F2DF8D918DBB8C
:10130000E29AE19A9A95C9F77FBF7727089591E00D
:1013100001C092E0E5DFE09A8DB38D939A95D1F705
:10132000089552656C617931204F46460000526540
:101330006C617931206F6E0052656C617932204F9B
:101340004646000052656C617932206F6E0052652E
:101350006C617933204F4646000052656C617933E9
:10136000206F6E0031294F6E3D002020204F6666B1
:101370003D00202052656C61793D00002020466CC4
:1013800061673D0032294F6E3D0033294F6E3D00AD
:101390002A2A2A2A2A2A2A2A2A2A2A2A20434F554E
:1013A0004E54202A2A2A2A2A2A2A2A2A2A2A2A0083
:1013B0002A2A2A2A2A2A2A2A2A2A2A2A2054494D2B
:1013C00045202A2A2A2A2A2A2A2A2A2A2A2A0000C0
:00000001FF
