:100000000C942A001895000018950000189500001F
:10001000189500001895000018950000189500002C
:10002000189500000C940405189500001895000020
:10003000189500001895000018950000189500000C
:1000400018950000189500001895000018950000FC
:10005000189500008FE58DBFC0E4E8E34E2E88E0E0
:100060008EBFD8E0F8E05F2EEEEFF7E0A0E6B0E05C
:10007000A89584B7082E877F84BF88E1992781BD22
:1000800091BD88278D933197E9F76624D59ADD9A3B
:1000900084B7877F84BF8EE181BD86E081BD81B555
:1000A000886081BDA89580E08FBD84E08EBD89B752
:1000B000846089BF789484E08EBD8E9A8C9A8D9AE4
:1000C0008F9AA59AA79AA19AA39AA49AA69AA09A57
:1000D000A29A9698949895989798D49AD39AD29AE7
:1000E000BF98BE98BD98BA9ABB9ABC9A88988998CE
:1000F0008A98E0E0F0E0A3E7B0E00E94B009E2E017
:10010000F0E0A5E7B0E00E94B009E4E0F0E0A7E786
:10011000B0E00E94B009E1E0F0E0A4E7B0E00E94A6
:10012000B009E3E0F0E0A6E7B0E00E94B009E5E046
:10013000F0E0A8E7B0E00E94B009DC98DB98DA981C
:1001400084E08EBD0027A0E3B0E08C9182FB0EF42A
:1001500001E041E0041711F00C94FE0080E090E013
:10016000A0E6B0E08D939C938EB5887F8EBDA0E60F
:10017000B0E00E94A508A89584E690E00E941F09BF
:100180008BB390E189278BBB8BB398E089278BBB1E
:100190008BB394E089278BBBA0E6B0E00D911C9156
:1001A0000F3050E0150718F011F00C94D9000C94A2
:1001B000EF00DC9ADB9ADA9A8AE090E00E941F094D
:1001C000A8950027A0E3B0E08C9182FB0EF401E03B
:1001D00040E0041711F00C94DC000C949C050027FF
:1001E000A0E3B0E08C9182FB0EF401E040E0041744
:1001F00011F00C94B700DC98DB98DA980027A6E39E
:10020000B0E08C9187FB0EF401E041E0041711F09F
:100210000C94600100917C00003080E010F009F047
:1002200081E08F9300917900003080E010F009F0B8
:1002300081E09F91892B882311F40C94340180E094
:100240008093790080E080937C00C298E894A2E8D3
:10025000B0E08C9180F98C93E894A2E8B0E08C91A6
:1002600081F98C930C944B010091730041E0040FD1
:10027000A9E7B0E00C938091740080937C006894AF
:10028000A2E8B0E08C9180F98C93E894A2E8B0E009
:100290008C9181F98C938AE090E00E941F09A895C7
:1002A0000027A6E3B0E08C9187FB0EF401E040E06C
:1002B000041711F00C944B0180E991E00E941F0992
:1002C0000027A6E3B0E08C9186FB0EF401E041E04C
:1002D000041711F00C94C20100917D00003080E001
:1002E00010F009F081E08F9300917A00003080E0F7
:1002F00010F009F081E09F91892B882311F40C9470
:10030000960180E080937A0080E080937D00C3981E
:10031000E894A2E8B0E08C9182F98C93E894A2E88A
:10032000B0E08C9183F98C930C94AD010091730033
:1003300041E0040FAAE7B0E00C9380917400809331
:100340007D006894A2E8B0E08C9182F98C93E894E7
:10035000A2E8B0E08C9183F98C938AE090E00E944F
:100360001F09A8950027A6E3B0E08C9186FB0EF448
:1003700001E040E0041711F00C94AD0180E991E038
:100380000E941F090027A6E3B0E08C9185FB0EF4C4
:1003900001E041E0041711F00C94240200917E006A
:1003A000003080E010F009F081E08F9300917B0035
:1003B000003080E010F009F081E09F91892B8823C4
:1003C00011F40C94F80180E080937B0080E080932E
:1003D0007E00C498E894A2E8B0E08C9184F98C93F4
:1003E000E894A2E8B0E08C9185F98C930C940F020C
:1003F0000091770041E0040FABE7B0E00C938091EF
:10040000780080937E006894A2E8B0E08C9184F933
:100410008C93E894A2E8B0E08C9185F98C938AE003
:1004200090E00E941F09A8950027A6E3B0E08C91F8
:1004300085FB0EF401E040E0041711F00C940F026C
:1004400080E991E00E941F0900917C00003081E06A
:1004500009F080E08F93A2E8B0E00C9100FB002748
:100460000EF401E040E0041781E009F080E09F9184
:1004700089238F93A2E8B0E00C9101FB00270EF4D2
:1004800001E041E0041781E009F080E09F918923B9
:10049000882311F40C946D0280917900815080932F
:1004A00079008CE380937C0000917900003011F09A
:1004B0000C946D02E894A2E8B0E08C9180F98C93E2
:1004C000E894A2E8B0E08C9181F98C93C298E4E7BB
:1004D000F3E10E940B090E94130900917C00003097
:1004E00081E009F080E08F93A2E8B0E00C9100FB7E
:1004F00000270EF401E041E0041781E009F080E0FC
:100500009F9189238F93A2E8B0E00C9101FB002713
:100510000EF401E040E0041781E009F080E09F91D3
:100520008923882311F40C94A802E894A2E8B0E08F
:100530008C9180F98C936894A2E8B0E08C9181F959
:100540008C93C29AE0E8F3E10E940B090E94130920
:1005500000917D00003081E009F080E08F93A2E8F7
:10056000B0E00C9102FB00270EF401E040E004171C
:1005700081E009F080E09F9189238F93A2E8B0E0A9
:100580000C9103FB00270EF401E041E0041781E029
:1005900009F080E09F918923882311F40C94EB02E9
:1005A00080917A00815080937A008CE380937D0063
:1005B00000917A00003011F00C94EB02E894A2E86C
:1005C000B0E08C9182F98C93E894A2E8B0E08C9131
:1005D00083F98C93C39800917D00003081E009F08D
:1005E00080E08F93A2E8B0E00C9102FB00270EF4AC
:1005F00001E041E0041781E009F080E09F91892348
:100600008F93A2E8B0E00C9103FB00270EF401E009
:1006100040E0041781E009F080E09F91892388235E
:1006200011F40C942003E894A2E8B0E08C9182F9D4
:100630008C936894A2E8B0E08C9183F98C93C39A70
:1006400000917E00003081E009F080E08F93A2E805
:10065000B0E00C9104FB00270EF401E040E0041729
:1006600081E009F080E09F9189238F93A2E8B0E0B8
:100670000C9105FB00270EF401E041E0041781E036
:1006800009F080E09F918923882311F40C9463037F
:1006900080917B00815080937B008CE380937E006F
:1006A00000917B00003011F00C946303E894A2E801
:1006B000B0E08C9184F98C93E894A2E8B0E08C913E
:1006C00085F98C93C49800917E00003081E009F098
:1006D00080E08F93A2E8B0E00C9104FB00270EF4B9
:1006E00001E041E0041781E009F080E09F91892357
:1006F0008F93A2E8B0E00C9105FB00270EF401E017
:1007000040E0041781E009F080E09F91892388236D
:1007100011F40C949803E894A2E8B0E08C9184F969
:100720008C936894A2E8B0E08C9185F98C93C49A7C
:100730000027A0E3B0E08C9180FB0EF401E041E0E3
:10074000041711F00C948D040E9413090E941309E0
:10075000EAE8F3E10E940B09A0E2B8E0ECE7F0E080
:100760000E944F090E941709E0E9F3E10E940B097A
:10077000A0E2B8E0E9E7F0E00E944F090E94170903
:10078000E8E9F3E10E940B09A8E3B0E08C9182FB59
:10079000A0E2B8E00E942E098D9388278C930E94D6
:1007A0001709E2EAF3E10E940B09A2E8B0E08C919C
:1007B00080FBA0E2B8E00E942E098D9388278C93DD
:1007C0000E941709A2E8B0E08C9181FBA0E2B8E09A
:1007D0000E942E098D9388278C930E9417090E94EE
:1007E0001309EAEAF3E10E940B09A0E2B8E0EDE7A1
:1007F000F0E00E944F090E941709E0E9F3E10E942E
:100800000B09A0E2B8E0EAE7F0E00E944F090E947D
:100810001709E8E9F3E10E940B09A8E3B0E08C9125
:1008200083FBA0E2B8E00E942E098D9388278C9369
:100830000E941709E2EAF3E10E940B09A2E8B0E086
:100840008C9182FBA0E2B8E00E942E098D9388274C
:100850008C930E941709A2E8B0E08C9183FBA0E280
:10086000B8E00E942E098D9388278C930E94170967
:100870000E941309E0EBF3E10E940B09A0E2B8E04B
:10088000EEE7F0E00E944F090E941709E0E9F3E16A
:100890000E940B09A0E2B8E0EBE7F0E00E944F09EC
:1008A0000E941709E8E9F3E10E940B09A8E3B0E010
:1008B0008C9184FBA0E2B8E00E942E098D938827DA
:1008C0008C930E941709E2EAF3E10E940B09A2E867
:1008D000B0E08C9184FBA0E2B8E00E942E098D93D9
:1008E00088278C930E941709A2E8B0E08C9185FBC1
:1008F000A0E2B8E00E942E098D9388278C930E9475
:1009000017090E941309E6EBF3E10E940B090E940C
:10091000130984EF91E00E941F090027A0E3B0E0D3
:100920008C9181FB0EF401E041E0041711F00C946E
:10093000F3040E941309EAE8F3E10E940B09A0E224
:10094000B8E0E4E7F0E00E944F090E941709E0E9EF
:10095000F3E10E940B09A0E2B8E0E3E7F0E00E94B7
:100960004F090E9417090E941309EAEAF3E10E9465
:100970000B09A0E2B8E0E6E7F0E00E944F090E9410
:100980001709E0E9F3E10E940B09A0E2B8E0E5E70E
:10099000F0E00E944F090E9417090E941309E0EB42
:1009A000F3E10E940B09A0E2B8E0E8E7F0E00E9462
:1009B0004F090E941709E0E9F3E10E940B09A0E248
:1009C000B8E0E7E7F0E00E944F090E9417090E9493
:1009D0001309E6EDF3E10E940B090E94130984EF6D
:1009E00091E00E941F09A89581E090E00E941F09F4
:1009F00080917C00809369008091790080936800E9
:100A00000E949F070C94A2000F921F922F923F9278
:100A10004F925F927F92AF92BF920F931F932F934B
:100A20003F934F935F936F937F938F939F93AF9376
:100A3000BF93CF93DF93EF93FF938FB78F938FE3A2
:100A400097E59DBD8CBDAFE7B0E08C918F5F8C9337
:100A500000917F000C3318F011F00C9431050C94C8
:100A6000420580E080937F0000917C00003018F008
:100A700011F00C943D050C94420580917C0081504E
:100A800080937C00A0E8B0E08C918F5F8C93009104
:100A900080000C3318F011F00C9450050C94610593
:100AA00080E08093800000917D00003018F011F00C
:100AB0000C945C050C94610580917D0081508093BD
:100AC0007D00A1E8B0E08C918F5F8C930091810054
:100AD0000C3318F011F00C946F050C94800580E035
:100AE0008093810000917E00003018F011F00C948A
:100AF0007B050C94800580917E00815080937E0060
:100B00008F918FBFFF91EF91DF91CF91BF91AF9107
:100B10009F918F917F916F915F914F913F912F9115
:100B20001F910F91BF90AF907F905F904F903F903B
:100B30002F901F900F901895DC9ADB98DA9880E040
:100B40008093680080917300809369000E949D06E5
:100B50008091690080937300E0E0F0E0A9E6B0E0E6
:100B60007BE70E949F098AE090E00E941F09A895F8
:100B70000027A0E3B0E08C9182FB0EF401E040E09E
:100B8000041711F00C94B3058CE291E00E941F0948
:100B9000809174008093680080E0809369000E94D7
:100BA0001E078091680080937400E1E0F0E0A8E601
:100BB000B0E07BE70E949F098AE090E00E941F0955
:100BC000A8950027A0E3B0E08C9182FB0EF401E031
:100BD00040E0041711F00C94DC058CE291E00E94D7
:100BE0001F09DC98DB9ADA9880E080936800809196
:100BF0007500809369000E949D0680916900809332
:100C00007500E2E0F0E0A9E6B0E07BE70E949F0912
:100C10008AE090E00E941F09A8950027A0E3B0E0B9
:100C20008C9182FB0EF401E040E0041711F00C946B
:100C300008068CE291E00E941F0980917600809363
:100C4000680080E0809369000E941E078091680020
:100C500080937600E3E0F0E0A8E6B0E07BE70E9456
:100C60009F098AE090E00E941F09A8950027A0E351
:100C7000B0E08C9182FB0EF401E040E0041711F02B
:100C80000C9431068CE291E00E941F09DC98DB98FD
:100C9000DA9A80E080936800809177008093690001
:100CA0000E949D068091690080937700E4E0F0E067
:100CB000A9E6B0E07BE70E949F098AE090E00E94ED
:100CC0001F09A8950027A0E3B0E08C9182FB0EF4E9
:100CD00001E040E0041711F00C945D068CE291E015
:100CE0000E941F09809178008093680080E08093C3
:100CF00069000E941E078091680080937800E5E0FB
:100D0000F0E0A8E6B0E07BE70E949F098AE090E06F
:100D10000E941F09A8950027A0E3B0E08C9182FBF8
:100D20000EF401E040E0041711F00C9486068CE20A
:100D300091E00E941F090C949D000E949F070027CC
:100D4000A0E3B0E08C9180FB0EF401E041E00417D9
:100D500011F00C94D606A9E6B0E08C918F5F8C93CD
:100D6000009169000B3318F011F00C94B9060C9443
:100D7000BC0681E08093690081E090E0A0E6B0E0ED
:100D80008D939C93A0E6B0E00D911C91083250E049
:100D9000150718F011F00C94D6060E949F07A0E6E4
:100DA000B0E00E94A50810F40C94C2060027A0E34E
:100DB000B0E08C9181FB0EF401E041E0041711F0EA
:100DC0000C940D0780916900815080936900009117
:100DD00069000B3318F011F00C94F0060C94F30634
:100DE0008BE38093690081E090E0A0E6B0E08D9312
:100DF0009C93A0E6B0E00D911C91083250E01507DD
:100E000018F011F00C940D070E949F07A0E6B0E0C7
:100E10000E94A50810F40C94F9060027A0E3B0E0A6
:100E20008C9182FB0EF401E041E0041711F00C9468
:100E30001B070C941D070C949D0608950E949F07A4
:100E40000027A0E3B0E08C9180FB0EF401E041E0CC
:100E5000041711F00C945707A8E6B0E08C918F5F4F
:100E60008C93009168000B3318F011F00C943A0742
:100E70000C943D0781E08093680081E090E0A0E65B
:100E8000B0E08D939C93A0E6B0E00D911C910832E8
:100E900050E0150718F011F00C9457070E949F07B7
:100EA000A0E6B0E00E94A50810F40C9443070027C8
:100EB000A0E3B0E08C9181FB0EF401E041E0041767
:100EC00011F00C948E078091680081508093680027
:100ED000009168000B3318F011F00C9471070C941A
:100EE00074078BE38093680081E090E0A0E6B0E0B7
:100EF0008D939C93A0E6B0E00D911C91083250E0D8
:100F0000150718F011F00C948E070E949F07A0E6B9
:100F1000B0E00E94A50810F40C947A070027A0E323
:100F2000B0E08C9182FB0EF401E041E0041711F077
:100F30000C949C070C949E070C941E070895A8E639
:100F4000B0E00D9111274AE050E00E94CF08AAE6D8
:100F5000B0E04D935C93A8E6B0E00D9111274AE014
:100F600050E00E94CF08ACE6B0E00D931C93A9E6D8
:100F7000B0E00D9111274AE050E00E94CF08AEE6A4
:100F8000B0E04D935C93A9E6B0E00D9111274AE0E3
:100F900050E00E94CF08A0E7B0E00D931C93969A12
:100FA00080916A00809372000E94150881E090E0B1
:100FB0000E941F09969883E6809372000E9415088C
:100FC000949A80916C00809372000E94150881E0D1
:100FD00090E00E941F09949883E6809372000E941B
:100FE0001508959A80916E00809372000E941508F2
:100FF00081E090E00E941F09959883E6809372003B
:101000000E941508979A80917000809372000E9448
:10101000150881E090E00E941F09979883E680936D
:1010200072000E941508A895089500917200003082
:1010300011F00C942208AD9AAF9AA99AAB9AAC9A87
:10104000AE9AA89800917200013011F00C942F080C
:10105000AD98AF9AA99AAB98AC98AE98A898009121
:101060007200023011F00C943C08AD9AAF9AA99826
:10107000AB9AAC9AAE98A89A00917200033011F026
:101080000C944908AD9AAF9AA99AAB9AAC98AE98CD
:10109000A89A00917200043011F00C945608AD9893
:1010A000AF9AA99AAB98AC98AE9AA89A00917200A0
:1010B000053011F00C946308AD9AAF98A99AAB9AD9
:1010C000AC98AE9AA89A00917200063011F00C9478
:1010D0007008AD9AAF98A99AAB9AAC9AAE9AA89AB2
:1010E00000917200073011F00C947D08AD9AAF9A10
:1010F000A99AAB98AC98AE98A89800917200083065
:1011000011F00C948A08AD9AAF9AA99AAB9AAC9A4E
:10111000AE9AA89A00917200093011F00C949708C9
:10112000AD9AAF9AA99AAB9AAC98AE9AA89A009148
:101130007200033611F00C94A408AD98AF98A998EA
:10114000AB98AC98AE98A8980895ED91FC91EF5F9C
:10115000FF4FFC93EE93089500FC10D0089503D048
:101160001ED001F8F9CF0024E89457FF02C009D03F
:10117000689400F80BD010F80124089502D009D02B
:101180000895509540954F5F5F4F0895E89417FF7D
:101190000895009510950F5F1F4F68940895352F9F
:1011A000242FE894452B11F468940895512F402F73
:1011B0000027112780E1440F551F001F111F021B3C
:1011C000130B416018F4020F131F4E7F8A9599F795
:1011D00008953197F1F70895689462F80895E894B6
:1011E00062F808958F939F938BE890E00197F1F751
:1011F0009F918F91089580952AE090E0089410F4D3
:10120000DD9802C0DD9A0000EDDFECDF9695879552
:101210002A95A9F70895C895802D882319F0EBDF4A
:101220003196F9CF08958DE0E6DF8AE0E4CFA0E2C1
:10123000B8E08D91882311F0DEDFFBCF0895EF93A6
:10124000FF93EE27E82BE92B31F0EDECFAE0319734
:10125000F1F70197D1F7FF91EF91089580E30EF434
:1012600083950895000F111F221F331F08950095C5
:101270001095209530950F5F1F4F2F4F3F4F0895CA
:10128000019110810EC001911191219130810BC00B
:101290000191108117FF05C03FEF2FEF04C00081BF
:1012A00011272227332737FF03C0E1DF8DE28D931B
:1012B000CF93DF93CF92DF92EF92AA24BB24CC246A
:1012C000DD24EE2440E2CAE0DD2755E093E3888187
:1012D000890F87FD9F7083FD907F891B89935A95A5
:1012E000A9F7C0DFAA1CBB1CCC1CDD1CEE1C4A9558
:1012F00051F7E894EFE0FF2782910ED0EB30E0F752
:101300001EF068948A2D0CD088278D93EF90DF9083
:10131000CF90DF91CF910895982F829501D0892F9A
:101320008F70805D26F0803309F4089568948D9362
:101330000895E199FECFEEBBFFBB3196089591E091
:1013400001C092E07B3751F47FB7F894F2DF8D91C2
:101350008DBBE29AE19A9A95C9F77FBF77270895E6
:1013600091E001C092E0E5DFE09A8DB38D939A950C
:10137000D1F7089552656C617931204F46460000DF
:1013800052656C617931206F6E0031294F6E3D00DE
:101390002020204F66663D00202052656C61793D1B
:1013A00000002020466C61673D0032294F6E3D00F1
:1013B00033294F6E3D002A2A2A2A2A2A2A2A2A2A33
:1013C0002A2A20434F554E54202A2A2A2A2A2A2ADA
:1013D0002A2A2A2A2A002A2A2A2A2A2A2A2A2A2A97
:1013E0002A2A2054494D45202A2A2A2A2A2A2A2AEA
:0613F0002A2A2A2A00004F
:00000001FF
