:100000000C942A001895000018950000189500001F
:10001000189500001895000018950000189500002C
:10002000189500000C9435051895000018950000EF
:10003000189500001895000018950000189500000C
:1000400018950000189500001895000018950000FC
:10005000189500008FE58DBFC0E4E8E34E2E88E0E0
:100060008EBFD8E0F8E05F2EEEEFF7E0A0E6B0E05C
:10007000A89584B7082E877F84BF88E1992781BD22
:1000800091BD88278D933197E9F76624D59ADD9A3B
:1000900084B7877F84BF8EE181BD86E081BD81B555
:1000A000886081BDA89580E08FBD84E08EBD89B752
:1000B000846089BF789484E08EBD8E9A8C9A8D9AE4
:1000C0008F9AA59AA79AA19AA39AA49AA69AA09A57
:1000D000A29A9698949895989798D49AD39AD29AE7
:1000E000BF98BE98BD98BA9ABB9ABC9AD79A88987E
:1000F00089988A98E0E0F0E0A3E7B0E00E94AC09BC
:10010000E2E0F0E0A5E7B0E00E94AC09E4E0F0E056
:10011000A7E7B0E00E94AC09E1E0F0E0A4E7B0E0BE
:100120000E94AC09E3E0F0E0A6E7B0E00E94AC0971
:10013000E5E0F0E0A8E7B0E00E94AC09DC98DB98CD
:10014000DA9884E08EBD0E9412050027A0E3B0E09B
:100150008C9182FB0EF401E041E0041711F00C9445
:10016000F40080E090E0A0E6B0E08D939C938EB523
:10017000887F8EBDA0E6B0E00E94A108A89584E625
:1001800090E00E941B098BB390E189278BBB8BB356
:1001900098E089278BBB8BB394E089278BBBA0E6C3
:1001A000B0E00D911C910F3050E0150718F011F0E0
:1001B0000C94DC000C94E500DC9ADB9ADA9A0E943D
:1001C00012050E9485070C94F4050027A0E3B0E017
:1001D0008C9182FB0EF401E040E0041711F00C94C6
:1001E000BA00DC98DB98DA980027A6E3B0E08C919F
:1001F00087FB0EF401E041E0041711F00C94550167
:100200000E94120500917C00003080E010F009F09F
:1002100081E08F9300917900003080E010F009F0C8
:1002200081E09F91892B882311F40C942C0180E0AC
:100230008093790080E080937C00C298E894A2E8E3
:10024000B0E08C9180F98C93E894A2E8B0E08C91B6
:1002500081F98C930C944001809173008093790014
:100260008091740080937C006894A2E8B0E08C9147
:1002700080F98C93E894A2E8B0E08C9181F98C939A
:100280008AE090E00E941B09A8950027A6E3B0E051
:100290008C9187FB0EF401E040E0041711F00C9400
:1002A000400180E991E00E941B090027A6E3B0E02D
:1002B0008C9186FB0EF401E041E0041711F00C94E0
:1002C000B6010E94120500917D00003080E010F020
:1002D00009F081E08F9300917A00003080E010F007
:1002E00009F081E09F91892B882311F40C948D01F2
:1002F00080E080937A0080E080937D00C398E8944A
:10030000A2E8B0E08C9182F98C93E894A2E8B0E086
:100310008C9183F98C930C94A1018091730080934C
:100320007A008091740080937D006894A2E8B0E028
:100330008C9182F98C93E894A2E8B0E08C9183F9D7
:100340008C938AE090E00E941B09A8950027A6E301
:10035000B0E08C9186FB0EF401E040E0041711F050
:100360000C94A10180E991E00E941B090027A6E3FB
:10037000B0E08C9185FB0EF401E041E0041711F030
:100380000C9417020E94120500917E00003080E05C
:1003900010F009F081E08F9300917B00003080E045
:1003A00010F009F081E09F91892B882311F40C94BF
:1003B000EE0180E080937B0080E080937E00C49813
:1003C000E894A2E8B0E08C9184F98C93E894A2E8D8
:1003D000B0E08C9185F98C930C94020280917700A7
:1003E00080937B008091780080937E006894A2E8DF
:1003F000B0E08C9184F98C93E894A2E8B0E08C9101
:1004000085F98C938AE090E00E941B09A89500274B
:10041000A6E3B0E08C9185FB0EF401E040E0041708
:1004200011F00C94020280E991E00E941B090091F6
:100430007C00003081E009F080E08F93A2E8B0E01A
:100440000C9100FB00270EF401E040E0041781E06E
:1004500009F080E09F9189238F93A2E8B0E00C918E
:1004600001FB00270EF401E041E0041781E009F0F0
:1004700080E09F918923882311F40C94610280917C
:1004800079008150809379008CE380937C00009107
:100490007900003011F00C946102E894A2E8B0E019
:1004A0008C9180F98C93E894A2E8B0E08C9181F96A
:1004B0008C93C298DC98ECE6F3E10E9407090E9455
:1004C0000F0900917C00003081E009F080E08F93FB
:1004D000A2E8B0E00C9100FB00270EF401E041E03F
:1004E000041781E009F080E09F9189238F93A2E8AF
:1004F000B0E00C9101FB00270EF401E040E004178E
:1005000081E009F080E09F918923882311F40C9405
:100510009C02E894A2E8B0E08C9180F98C936894F6
:10052000A2E8B0E08C9181F98C93C29AE8E7F3E1FC
:100530000E9407090E940F0900917D00003081E0B0
:1005400009F080E08F93A2E8B0E00C9102FB002755
:100550000EF401E040E0041781E009F080E09F9193
:1005600089238F93A2E8B0E00C9103FB00270EF4DF
:1005700001E041E0041781E009F080E09F918923C8
:10058000882311F40C94E60280917A0081508093C4
:100590007A008CE380937D0000917A00003011F0A6
:1005A0000C94E602E894A2E8B0E08C9182F98C9376
:1005B000E894A2E8B0E08C9183F98C93C398DB981F
:1005C000E2E8F3E10E9407090E940F0900917D0013
:1005D000003081E009F080E08F93A2E8B0E00C9158
:1005E00002FB00270EF401E041E0041781E009F06E
:1005F00080E09F9189238F93A2E8B0E00C9103FBE8
:1006000000270EF401E040E0041781E009F080E0EB
:100610009F918923882311F40C942103E894A2E884
:10062000B0E08C9182F98C936894A2E8B0E08C9150
:1006300083F98C93C39AEEE8F3E10E9407090E94C4
:100640000F0900917E00003081E009F080E08F9377
:10065000A2E8B0E00C9104FB00270EF401E040E0BA
:10066000041781E009F080E09F9189238F93A2E82D
:10067000B0E00C9105FB00270EF401E041E0041707
:1006800081E009F080E09F918923882311F40C9484
:100690006B0380917B00815080937B008CE380937F
:1006A0007E0000917B00003011F00C946B03E89405
:1006B000A2E8B0E08C9184F98C93E894A2E8B0E0D1
:1006C0008C9185F98C93C498DA98E8E9F3E10E945B
:1006D00007090E940F0900917E00003081E009F0B7
:1006E00080E08F93A2E8B0E00C9104FB00270EF4A9
:1006F00001E041E0041781E009F080E09F91892347
:100700008F93A2E8B0E00C9105FB00270EF401E006
:1007100040E0041781E009F080E09F91892388235D
:1007200011F40C94A603E894A2E8B0E08C9184F94B
:100730008C936894A2E8B0E08C9185F98C93C49A6C
:10074000E4EAF3E10E9407090E940F090027A0E3F1
:10075000B0E08C9180FB0EF401E041E0041711F051
:100760000C949B040E940F090E940F09EEEAF3E12A
:100770000E940709A0E2B8E0ECE7F0E00E944B0914
:100780000E941309E4EBF3E10E940709A0E2B8E03C
:10079000E9E7F0E00E944B090E941309ECEBF3E15A
:1007A0000E940709A8E3B0E08C9182FBA0E2B8E0C8
:1007B0000E942A098D9388278C930E941309E6ECE6
:1007C000F3E10E940709A2E8B0E08C9180FBA0E26F
:1007D000B8E00E942A098D9388278C930E94130900
:1007E000A2E8B0E08C9181FBA0E2B8E00E942A0967
:1007F0008D9388278C930E9413090E940F09EEECB9
:10080000F3E10E940709A0E2B8E0EDE7F0E00E9402
:100810004B090E941309E4EBF3E10E940709A0E2EF
:10082000B8E0EAE7F0E00E944B090E941309ECEB04
:10083000F3E10E940709A8E3B0E08C9183FBA0E2FA
:10084000B8E00E942A098D9388278C930E9413098F
:10085000E6ECF3E10E940709A2E8B0E08C9182FB8C
:10086000A0E2B8E00E942A098D9388278C930E9409
:100870001309A2E8B0E08C9183FBA0E2B8E00E94EB
:100880002A098D9388278C930E9413090E940F09CF
:10089000E4EDF3E10E940709A0E2B8E0EEE7F0E042
:1008A0000E944B090E941309E4EBF3E10E9407093F
:1008B000A0E2B8E0EBE7F0E00E944B090E941309C8
:1008C000ECEBF3E10E940709A8E3B0E08C9184FB14
:1008D000A0E2B8E00E942A098D9388278C930E9499
:1008E0001309E6ECF3E10E940709A2E8B0E08C915D
:1008F00084FBA0E2B8E00E942A098D9388278C939C
:100900000E941309A2E8B0E08C9185FBA0E2B8E058
:100910000E942A098D9388278C930E9413090E94B4
:100920000F09EAEDF3E10E9407090E940F0984EF25
:1009300091E00E941B090027A0E3B0E08C9181FBAD
:100940000EF401E041E0041711F00C9401050E943F
:100950000F09EEEAF3E10E940709A0E2B8E0E4E73C
:10096000F0E00E944B090E941309E4EBF3E10E94BE
:100970000709A0E2B8E0E3E7F0E00E944B090E941B
:1009800013090E940F09EEECF3E10E940709A0E2AF
:10099000B8E0E6E7F0E00E944B090E941309E4EB9F
:1009A000F3E10E940709A0E2B8E0E5E7F0E00E9469
:1009B0004B090E9413090E940F09E4EDF3E10E9424
:1009C0000709A0E2B8E0E8E7F0E00E944B090E94C6
:1009D0001309E4EBF3E10E940709A0E2B8E0E7E7BE
:1009E000F0E00E944B090E9413090E940F09EAEFF0
:1009F000F3E10E9407090E940F0984EF91E00E9431
:100A00001B09A89581E090E00E941B0980917C0061
:100A10008093690080917900809368000E949B0711
:100A20000C94A50081E090E0A0E6B0E08D939C934B
:100A3000A0E6B0E00D911C91033050E0150718F0CE
:100A400011F00C943405DF9A8CE390E00E941B09AE
:100A5000DF988CE390E00E941B09A0E6B0E00E94C2
:100A6000A10810F40C94180508950F921F922F926C
:100A70003F924F925F927F92AF92BF920F931F93DC
:100A80002F933F934F935F936F937F938F939F9396
:100A9000AF93BF93CF93DF93EF93FF938FB78F9372
:100AA0008FE397E59DBD8CBDAFE7B0E08C918F5F84
:100AB0008C9300917F000C3318F011F00C946205B8
:100AC0000C94730580E080937F0000917C000030DF
:100AD00018F011F00C946E050C94730580917C0055
:100AE000815080937C00A0E8B0E08C918F5F8C9364
:100AF000009180000C3318F011F00C9481050C94D7
:100B0000920580E08093800000917D00003018F015
:100B100011F00C948D050C94920580917D0081500C
:100B200080937D00A1E8B0E08C918F5F8C93009161
:100B300081000C3318F011F00C94A0050C94B10551
:100B400080E08093810000917E00003018F011F069
:100B50000C94AC050C94B10580917E00815080937B
:100B60007E0000917C00003018F011F00C94BA0562
:100B70000C94BE058BB390E189278BBB00917D005F
:100B8000003018F011F00C94C7050C94CB058BB312
:100B900098E089278BBB00917E00003018F011F09F
:100BA0000C94D4050C94D8058BB394E089278BBBA7
:100BB0008F918FBFFF91EF91DF91CF91BF91AF9157
:100BC0009F918F917F916F915F914F913F912F9165
:100BD0001F910F91BF90AF907F905F904F903F908B
:100BE0002F901F900F901895DC9ADB98DA9880E090
:100BF0008093680080917400809369000E9483064E
:100C00008091690080937400E1E0F0E0A9E6B0E033
:100C10007BE70E949B090E94850780917300809367
:100C2000680080E0809369000E940407809168005A
:100C300080937300E0E0F0E0A8E6B0E07BE70E947C
:100C40009B090E948507DC98DB9ADA9880E0809304
:100C5000680080917600809369000E9483068091ED
:100C6000690080937600E3E0F0E0A9E6B0E07BE77E
:100C70000E949B090E9485078091750080936800FF
:100C800080E0809369000E9404078091680080934F
:100C90007500E2E0F0E0A8E6B0E07BE70E949B0987
:100CA0000E948507DC98DB98DA9A80E080936800E0
:100CB00080917800809369000E948306809169008A
:100CC00080937800E5E0F0E0A9E6B0E07BE70E94E1
:100CD0009B090E948507809177008093680080E0DF
:100CE000809369000E9404078091680080937700D8
:100CF000E4E0F0E0A8E6B0E07BE70E949B090E94F8
:100D000085070C949E000E949B070027A0E3B0E09B
:100D10008C9180FB0EF401E041E0041711F00C947B
:100D2000BC06A9E6B0E08C918F5F8C9300916900BE
:100D30000B3318F011F00C949F060C94A20681E07E
:100D40008093690081E090E0A0E6B0E08D939C93F1
:100D5000A0E6B0E00D911C91083250E0150718F0A4
:100D600011F00C94BC060E949B07A0E6B0E00E9424
:100D7000A10810F40C94A8060027A0E3B0E08C9121
:100D800081FB0EF401E041E0041711F00C94F3062E
:100D900080916900815080936900009169000B3354
:100DA00018F011F00C94D6060C94D9068BE38093BE
:100DB000690081E090E0A0E6B0E08D939C93A0E60E
:100DC000B0E00D911C91083250E0150718F011F0B9
:100DD0000C94F3060E949B07A0E6B0E00E94A108D5
:100DE00010F40C94DF060027A0E3B0E08C9182FBA6
:100DF0000EF401E041E0041711F00C9401070C948B
:100E000003070C94830608950E949B070027A0E324
:100E1000B0E08C9180FB0EF401E041E0041711F08A
:100E20000C943D07A8E6B0E08C918F5F8C93009105
:100E300068000B3318F011F00C9420070C94230772
:100E400081E08093680081E090E0A0E6B0E08D93BF
:100E50009C93A0E6B0E00D911C91083250E015077C
:100E600018F011F00C943D070E949B07A0E6B0E03B
:100E70000E94A10810F40C9429070027A0E3B0E019
:100E80008C9181FB0EF401E041E0041711F00C9409
:100E90007407809168008150809368000091680019
:100EA0000B3318F011F00C9457070C945A078BE38E
:100EB0008093680081E090E0A0E6B0E08D939C9381
:100EC000A0E6B0E00D911C91083250E0150718F033
:100ED00011F00C9474070E949B07A0E6B0E00E94FA
:100EE000A10810F40C9460070027A0E3B0E08C91F7
:100EF00082FB0EF401E041E0041711F00C9482072C
:100F00000C9484070C94040708958AE090E00E94F2
:100F10001B09A8950027A0E3B0E08C9182FB0EF49A
:100F200001E040E0041711F00C9485078CE291E099
:100F30000E941B090895A8E6B0E00D9111274AE030
:100F400050E00E94CB08AAE6B0E04D935C93A8E67F
:100F5000B0E00D9111274AE050E00E94CB08ACE6CA
:100F6000B0E00D931C93A9E6B0E00D9111274AE083
:100F700050E00E94CB08AEE6B0E04D935C93A9E64A
:100F8000B0E00D9111274AE050E00E94CB08A0E7A5
:100F9000B0E00D931C93969A80916A008093720042
:100FA0000E94110881E090E00E941B09969883E658
:100FB000809372000E941108949A80916C00809333
:100FC00072000E94110881E090E00E941B09949831
:100FD00083E6809372000E941108959A80916E00BA
:100FE000809372000E94110881E090E00E941B092A
:100FF000959883E6809372000E941108979A8091D9
:101000007000809372000E94110881E090E00E94BD
:101010001B09979883E6809372000E941108A89597
:10102000089500917200003011F00C941E08AD9AE2
:10103000AF9AA99AAB9AAC9AAE9AA898009172000E
:10104000013011F00C942B08AD98AF9AA99AAB9887
:10105000AC98AE98A89800917200023011F00C94F0
:101060003808AD9AAF9AA998AB9AAC9AAE98A89A5C
:1010700000917200033011F00C944508AD9AAF9ABC
:10108000A99AAB9AAC98AE98A89A009172000430D5
:1010900011F00C945208AD98AF9AA99AAB98AC98FD
:1010A000AE9AA89A00917200053011F00C945F0876
:1010B000AD9AAF98A99AAB9AAC98AE9AA89A0091BB
:1010C0007200063011F00C946C08AD9AAF98A99A92
:1010D000AB9AAC9AAE9AA89A00917200073011F0C0
:1010E0000C947908AD9AAF9AA99AAB98AC98AE983F
:1010F000A89800917200083011F00C948608AD9AFF
:10110000AF9AA99AAB9AAC9AAE9AA89A009172003B
:10111000093011F00C949308AD9AAF9AA99AAB9A42
:10112000AC98AE9AA89A00917200033611F00C9414
:10113000A008AD98AF98A998AB98AC98AE98A8982D
:101140000895ED91FC91EF5FFF4FFC93EE930895AE
:1011500000FC10D0089503D01ED001F8F9CF002470
:10116000E89457FF02C009D0689400F80BD010F83B
:101170000124089502D009D00895509540954F5FFD
:101180005F4F0895E89417FF0895009510950F5F3D
:101190001F4F68940895352F242FE894452B11F4A0
:1011A00068940895512F402F0027112780E1440FA4
:1011B000551F001F111F021B130B416018F4020F73
:1011C000131F4E7F8A9599F708953197F1F7089587
:1011D000689462F80895E89462F808958F939F9355
:1011E0008BE890E00197F1F79F918F91089580959A
:1011F0002AE090E0089410F4DD9802C0DD9A000027
:10120000EDDFECDF969587952A95A9F70895C895A7
:10121000802D882319F0EBDF3196F9CF08958DE00A
:10122000E6DF8AE0E4CFA0E2B8E08D91882311F0F8
:10123000DEDFFBCF0895EF93FF93EE27E82BE92B3A
:1012400031F0EDECFAE03197F1F70197D1F7FF912A
:10125000EF91089580E30EF483950895000F111F18
:10126000221F331F089500951095209530950F5F2C
:101270001F4F2F4F3F4F0895019110810EC00191D4
:101280001191219130810BC00191108117FF05C090
:101290003FEF2FEF04C0008111272227332737FFAC
:1012A00003C0E1DF8DE28D93CF93DF93CF92DF9286
:1012B000EF92AA24BB24CC24DD24EE2440E2CAE031
:1012C000DD2755E093E38881890F87FD9F7083FDBB
:1012D000907F891B89935A95A9F7C0DFAA1CBB1C74
:1012E000CC1CDD1CEE1C4A9551F7E894EFE0FF277B
:1012F00082910ED0EB30E0F71EF068948A2D0CD06E
:1013000088278D93EF90DF90CF90DF91CF91089554
:10131000982F829501D0892F8F70805D26F08033C1
:1013200009F4089568948D930895E199FECFEEBB7A
:10133000FFBB3196089591E001C092E07B3751F4F4
:101340007FB7F894F2DF8D918DBBE29AE19A9A957E
:10135000C9F77FBF7727089591E001C092E0E5DFEC
:10136000E09A8DB38D939A95D1F7089552656C618B
:101370007931204F4646000052656C617931206F0B
:101380006E0052656C617932204F4646000052650E
:101390006C617932206F6E0052656C617933204F39
:1013A0004646000052656C617933206F6E0031292A
:1013B0004F6E3D002020204F66663D002020526584
:1013C0006C61793D00002020466C61673D00322948
:1013D0004F6E3D0033294F6E3D002A2A2A2A2A2AC1
:1013E0002A2A2A2A2A2A20434F554E54202A2A2ABA
:1013F0002A2A2A2A2A2A2A2A2A002A2A2A2A2A2A77
:101400002A2A2A2A2A2A2054494D45202A2A2A2AC9
:0A1410002A2A2A2A2A2A2A2A000082
:00000001FF
