:100000000C942A001895000018950000189500001F
:10001000189500001895000018950000189500002C
:10002000189500001895000018950000189500001C
:10003000189500001895000018950000189500000C
:1000400018950000189500001895000018950000FC
:10005000189500008FE58DBFC0E4E8E34E2E88E0E0
:100060008EBFD8E0F8E05F2EEEEFF7E0A0E6B0E05C
:10007000A89584B7082E877F84BF88E1992781BD22
:1000800091BD88278D933197E9F7662484B7877FE0
:1000900084BF8EE181BD86E081BD81B5886081BD70
:1000A000A8958E9A8C9A8D9A8F9AA59AA79AA19ABA
:1000B000A39AA49AA69AA09AA29A96989498959888
:1000C0009798D49AD39AD29AB898B998BA98BA9A73
:1000D000BB9ABC9A889889988A98E0E0F0E0A3E7F8
:1000E000B0E00E946B04E2E0F0E0A5E7B0E00E941F
:1000F0006B04E4E0F0E0A7E7B0E00E946B04E1E00D
:10010000F0E0A4E7B0E00E946B04E3E0F0E0A6E7D3
:10011000B0E00E946B04E5E0F0E0A8E7B0E00E94E8
:100120006B04DC98DB98DA980027A0E3B0E08C91B0
:1001300082FB0EF401E041E0041711F00C94ED0095
:1001400080E090E0A0E6B0E08D939C93A0E6B0E064
:100150000E94F803A89584E690E00E9445048BB3C2
:1001600090E189278BBB8BB398E089278BBB8BB33E
:1001700094E089278BBBA0E6B0E00D911C910F3075
:1001800050E0150718F011F00C94C8000C94DE0034
:10019000DC9ADB9ADA9A8AE090E00E944504A895FE
:1001A0000027A0E3B0E08C9182FB0EF401E040E078
:1001B000041711F00C94CB000C94EF000027A0E37F
:1001C000B0E08C9182FB0EF401E040E0041711F0E6
:1001D0000C94A600DC98DB98DA980C949400DC9AD6
:1001E000DB98DA9880E080936800809173008093B8
:1001F00069000E94F0018091690080937300E0E043
:10020000F0E0A9E6B0E07BE70E945A048AE090E0C3
:100210000E944504A8950027A0E3B0E08C9182FBE2
:100220000EF401E040E0041711F00C9406018CE29A
:1002300091E00E944504809174008093680080E002
:10024000809369000E94710280916800809374001D
:10025000E1E0F0E0A8E6B0E07BE70E945A048AE023
:1002600090E00E944504A8950027A0E3B0E08C919F
:1002700082FB0EF401E040E0041711F00C942F0112
:100280008CE291E00E944504DC98DB9ADA9880E0E9
:100290008093680080917500809369000E94F0014E
:1002A0008091690080937500E2E0F0E0A9E6B0E09B
:1002B0007BE70E945A048AE090E00E944504A895DA
:1002C0000027A0E3B0E08C9182FB0EF401E040E057
:1002D000041711F00C945B018CE291E00E9445043C
:1002E000809176008093680080E0809369000E948E
:1002F00071028091680080937600E3E0F0E0A8E668
:10030000B0E07BE70E945A048AE090E00E94450436
:10031000A8950027A0E3B0E08C9182FB0EF401E0E9
:1003200040E0041711F00C9484018CE291E00E94EB
:100330004504DC98DB98DA9A80E08093680080912D
:100340007700809369000E94F0018091690080939A
:100350007700E4E0F0E0A9E6B0E07BE70E945A0411
:100360008AE090E00E944504A8950027A0E3B0E051
:100370008C9182FB0EF401E040E0041711F00C9424
:10038000B0018CE291E00E94450480917800809356
:10039000680080E0809369000E947102809168008B
:1003A00080937800E5E0F0E0A8E6B0E07BE70E940B
:1003B0005A048AE090E00E944504A8950027A0E333
:1003C000B0E08C9182FB0EF401E040E0041711F0E4
:1003D0000C94D9018CE291E00E9445040C949100A8
:1003E0000E94F2020027A0E3B0E08C9180FB0EF4A3
:1003F00001E041E0041711F00C942902A9E6B0E0F5
:100400008C918F5F8C93009169000B3318F011F081
:100410000C940C020C940F0281E08093690081E03F
:1004200090E0A0E6B0E08D939C93A0E6B0E00D9143
:100430001C91083250E0150718F011F00C942902B5
:100440000E94F202A0E6B0E00E94F80310F40C94BF
:1004500015020027A0E3B0E08C9181FB0EF401E0CF
:1004600041E0041711F00C94600280916900815002
:1004700080936900009169000B3318F011F00C941F
:1004800043020C9446028BE38093690081E090E084
:10049000A0E6B0E08D939C93A0E6B0E00D911C9196
:1004A000083250E0150718F011F00C9460020E9419
:1004B000F202A0E6B0E00E94F80310F40C944C02A3
:1004C0000027A0E3B0E08C9182FB0EF401E041E054
:1004D000041711F00C946E020C9470020C94F0014D
:1004E00008950E94F2020027A0E3B0E08C9180FB07
:1004F0000EF401E041E0041711F00C94AA02A8E602
:10050000B0E08C918F5F8C93009168000B3318F0F2
:1005100011F00C948D020C94900281E0809368009D
:1005200081E090E0A0E6B0E08D939C93A0E6B0E07F
:100530000D911C91083250E0150718F011F00C9441
:10054000AA020E94F202A0E6B0E00E94F80310F4B2
:100550000C9496020027A0E3B0E08C9181FB0EF48E
:1005600001E041E0041711F00C94E1028091680071
:10057000815080936800009168000B3318F011F0EF
:100580000C94C4020C94C7028BE38093680081E052
:1005900090E0A0E6B0E08D939C93A0E6B0E00D91D2
:1005A0001C91083250E0150718F011F00C94E1028C
:1005B0000E94F202A0E6B0E00E94F80310F40C944E
:1005C000CD020027A0E3B0E08C9182FB0EF401E0A5
:1005D00041E0041711F00C94EF020C94F1020C941A
:1005E00071020895A8E6B0E00D9111274AE050E0AD
:1005F0000E942204AAE6B0E04D935C93A8E6B0E026
:100600000D9111274AE050E00E942204ACE6B0E0D0
:100610000D931C93A9E6B0E00D9111274AE050E03C
:100620000E942204AEE6B0E04D935C93A9E6B0E0F0
:100630000D9111274AE050E00E942204A0E7B0E0AB
:100640000D931C93969A80916A00809372000E9489
:10065000680381E090E00E944504969883E68093C9
:1006600072000E946803949A80916C0080937200DB
:100670000E94680381E090E00E944504949883E61C
:10068000809372000E946803959A80916E00809317
:1006900072000E94680381E090E00E9445049598F2
:1006A00083E6809372000E946803979A809170009D
:1006B000809372000E94680381E090E00E944504EC
:1006C000979883E6809372000E946803A895089526
:1006D00000917200003011F00C947503AD9AAF9A3E
:1006E000A99AAB9AAC9AAE9AA89800917200013080
:1006F00011F00C948203AD98AF9AA99AAB98AC987C
:10070000AE98A89800917200023011F00C948F03FB
:10071000AD9AAF9AA998AB9AAC9AAE98A89A009164
:100720007200033011F00C949C03AD9AAF9AA99A11
:10073000AB9AAC98AE98A89A00917200043011F070
:100740000C94A903AD98AF9AA99AAB98AC98AE9ABD
:10075000A89A00917200053011F00C94B603AD9A7E
:10076000AF98A99AAB9AAC98AE9AA89A00917200E9
:10077000063011F00C94C303AD9AAF98A99AAB9AC6
:10078000AC9AAE9AA89A00917200073011F00C94BE
:10079000D003AD9AAF9AA99AAB98AC98AE98A898A6
:1007A00000917200083011F00C94DD03AD9AAF9AFD
:1007B000A99AAB9AAC9AAE9AA89A009172000930A5
:1007C00011F00C94EA03AD9AAF9AA99AAB9AAC983F
:1007D000AE9AA89A00917200033611F00C94F703B8
:1007E000AD98AF98A998AB98AC98AE98A898089592
:1007F000ED91FC91EF5FFF4FFC93EE93089500FCA9
:1008000010D0089503D01ED001F8F9CF0024E89449
:1008100057FF02C009D0689400F80BD010F80124EB
:10082000089502D009D00895509540954F5F5F4FCD
:100830000895E89417FF0895009510950F5F1F4FD6
:1008400068940895352F242FE894452B11F468946B
:100850000895512F402F0027112780E1440F551F85
:10086000001F111F021B130B416018F4020F131F0E
:100870004E7F8A9599F708953197F1F70895689416
:1008800062F80895E89462F80895EF93FF93EE27D5
:10089000E82BE92B31F0EDECFAE03197F1F7019715
:1008A000D1F7FF91EF910895E199FECFEEBBFFBB29
:1008B0003196089591E001C092E07B3751F47FB703
:1008C000F894F2DF8D918DBBE29AE19A9A95C9F77F
:1008D0007FBF7727089591E001C092E0E5DFE09ABD
:0A08E0008DB38D939A95D1F708951A
:00000001FF
