:100000000C942A001895000018950000189500001F
:10001000189500001895000018950000189500002C
:10002000189500000C94BA0218950000189500006D
:10003000189500001895000018950000189500000C
:1000400018950000189500001895000018950000FC
:10005000189500008FE58DBFC0E4E8E34E2E88E0E0
:100060008EBFD8E0F8E05F2EEEEFF7E0A0E6B0E05C
:10007000A89584B7082E877F84BF88E1992781BD22
:1000800091BD88278D933197E9F76624D59ADD9A3B
:1000900084B7877F84BF8EE181BD86E081BD81B555
:1000A000886081BDA89580E08FBD84E08EBD89B752
:1000B000846089BF789484E08EBD8E9A8C9A8D9AE4
:1000C0008F9AA59AA79AA19AA39AA49AA69AA09A57
:1000D000A29A9698949895989798D49AD39AD29AE7
:1000E000BF98BE98BD98BA9ABB9ABC9AD79A88987E
:1000F00089988A98E0E0F0E0A3E7B0E00E94D70694
:10010000E2E0F0E0A5E7B0E00E94D706E4E0F0E02E
:10011000A7E7B0E00E94D706E1E0F0E0A4E7B0E096
:100120000E94D706E3E0F0E0A6E7B0E00E94D70621
:10013000E5E0F0E0A8E7B0E00E94D706DC98DB98A5
:10014000DA9884E08EBD0E9497020027A0E3B0E019
:100150008C9182FB0EF401E041E0041711F00C9445
:10016000F40080E090E0A0E6B0E08D939C938EB523
:10017000887F8EBDA0E6B0E00E94CC05A89584E6FD
:1001800090E00E9446068BB390E189278BBB8BB32E
:1001900098E089278BBB8BB394E089278BBBA0E6C3
:1001A000B0E00D911C910F3050E0150718F011F0E0
:1001B0000C94DC000C94E500DC9ADB9ADA9A0E943D
:1001C00097020E94B0040C941F030027A0E3B0E044
:1001D0008C9182FB0EF401E040E0041711F00C94C6
:1001E000BA00DC98DB98DA980027A6E3B0E08C919F
:1001F00087FB0EF401E041E0041711F00C941701A5
:100200000E9497028AE090E00E944606A895002787
:10021000A6E3B0E08C9187FB0EF401E040E0041708
:1002200011F00C94020180E991E00E94460600273B
:10023000A6E3B0E08C9186FB0EF401E041E00417E8
:1002400011F00C943A010E9497028AE090E00E941B
:100250004606A8950027A6E3B0E08C9186FB0EF435
:1002600001E040E0041711F00C94250180E991E0D1
:100270000E9446060027A6E3B0E08C9185FB0EF4B1
:1002800001E041E0041711F00C945D010E94970217
:100290008AE090E00E944606A8950027A6E3B0E019
:1002A0008C9185FB0EF401E040E0041711F00C94F2
:1002B000480180E991E00E9446060027A0E3B0E0F3
:1002C0008C9180FB0EF401E041E0041711F00C94D6
:1002D00022020E943A060E943A06E2ECFDE00E94E9
:1002E0003206E8ECFDE00E943206E0EDFDE00E94FF
:1002F0003206A8E3B0E08C9182FBA0E2B8E00E9455
:1003000055068D9388278C930E943E06EAEDFDE00A
:100310000E943206A2E8B0E08C9180FBA0E2B8E037
:100320000E9455068D9388278C930E943E06A2E872
:10033000B0E08C9181FBA0E2B8E00E9455068D935D
:1003400088278C930E943E060E943A06E2EEFDE06A
:100350000E943206E8ECFDE00E943206E0EDFDE08E
:100360000E943206A8E3B0E08C9183FBA0E2B8E0E3
:100370000E9455068D9388278C930E943E06EAEDD5
:10038000FDE00E943206A2E8B0E08C9182FBA0E280
:10039000B8E00E9455068D9388278C930E943E06F4
:1003A000A2E8B0E08C9183FBA0E2B8E00E94550681
:1003B0008D9388278C930E943E060E943A06E8EEB1
:1003C000FDE00E943206E8ECFDE00E943206E0ED1E
:1003D000FDE00E943206A8E3B0E08C9184FBA0E22D
:1003E000B8E00E9455068D9388278C930E943E06A4
:1003F000EAEDFDE00E943206A2E8B0E08C9184FBB9
:10040000A0E2B8E00E9455068D9388278C930E9445
:100410003E06A2E8B0E08C9185FBA0E2B8E00E9425
:1004200055068D9388278C930E943E060E943A06BB
:10043000EEEEFDE00E9432060E943A0684EF91E063
:100440000E9446060027A0E3B0E08C9181FB0EF4E9
:1004500001E041E0041711F00C9488020E943A0672
:10046000E2ECFDE00E943206A0E2B8E0E4E7F0E052
:100470000E9476060E943E06E8ECFDE00E943206ED
:10048000A0E2B8E0E3E7F0E00E9476060E943E06B4
:100490000E943A06E2EEFDE00E943206A0E2B8E0D9
:1004A000E6E7F0E00E9476060E943E06E8ECFDE0FA
:1004B0000E943206A0E2B8E0E5E7F0E00E9476068E
:1004C0000E943E060E943A06E8EEFDE00E943206D7
:1004D000A0E2B8E0E8E7F0E00E9476060E943E065F
:1004E000E8ECFDE00E943206A0E2B8E0E7E7F0E0C9
:1004F0000E9476060E943E060E943A06EEE0FEE06A
:100500000E9432060E943A0684EF91E00E9446065D
:10051000A89581E090E00E94460681E08093690002
:1005200081E0809368000E94C6040C94A50081E0DD
:1005300090E0A0E6B0E08D939C93A0E6B0E00D9132
:100540001C91033050E0150718F011F00C94B9021B
:10055000DF9A8CE390E00E944606DF988CE390E0FF
:100560000E944606A0E6B0E00E94CC0510F40C9470
:100570009D0208950F921F922F923F924F925F9289
:100580007F92AF92BF920F931F932F933F934F93FE
:100590005F936F937F938F939F93AF93BF93CF930B
:1005A000DF93EF93FF938FB78F938FE397E59DBD15
:1005B0008CBD80917F00815080937F0000917F00EF
:1005C000003011F00C94E7028CE380937F0080915F
:1005D000800081508093800000918000003011F0F5
:1005E0000C94F5028CE380938000A1E8B0E08C913C
:1005F0008F5F8C9300918100003011F00C94030305
:100600008CE3809381008F918FBFFF91EF91DF91F9
:10061000CF91BF91AF919F918F917F916F915F919A
:100620004F913F912F911F910F91BF90AF907F906D
:100630005F904F903F902F901F900F901895DC9AED
:10064000DB98DA9880E08093680080917400809352
:1006500069000E94AE038091690080937400E1E01C
:10066000F0E0A9E6B0E07BE70E94C6060E94B00475
:10067000809173008093680080E0809369000E94FD
:100680002F048091680080937300E0E0F0E0A8E61A
:10069000B0E07BE70E94C6060E94B004DC98DB9ABB
:1006A000DA9880E0809368008091760080936900FA
:1006B0000E94AE038091690080937600E3E0F0E051
:1006C000A9E6B0E07BE70E94C6060E94B0048091D4
:1006D00075008093680080E0809369000E942F0479
:1006E0008091680080937500E2E0F0E0A8E6B0E059
:1006F0007BE70E94C6060E94B004DC98DB98DA9A79
:1007000080E08093680080917800809369000E9467
:10071000AE038091690080937800E5E0F0E0A9E6FF
:10072000B0E07BE70E94C6060E94B004809177008B
:100730008093680080E0809369000E942F0480917C
:10074000680080937700E4E0F0E0A8E6B0E07BE7A3
:100750000E94C6060E94B0040C949E000E94C6042B
:100760000027A0E3B0E08C9180FB0EF401E041E0B3
:10077000041711F00C94E703A9E6B0E08C918F5FA9
:100780008C93009169000B3318F011F00C94CA039C
:100790000C94CD0381E08093690081E090E0A0E6B5
:1007A000B0E08D939C93A0E6B0E00D911C910832CF
:1007B00050E0150718F011F00C94E7030E94C604EE
:1007C000A0E6B0E00E94CC0510F40C94D3030027FF
:1007D000A0E3B0E08C9181FB0EF401E041E004174E
:1007E00011F00C941E04809169008150809369007F
:1007F000009169000B3318F011F00C9401040C9473
:1008000004048BE38093690081E090E0A0E6B0E00F
:100810008D939C93A0E6B0E00D911C91083250E0BE
:10082000150718F011F00C941E040E94C604A0E6EF
:10083000B0E00E94CC0510F40C940A040027A0E359
:10084000B0E08C9182FB0EF401E041E0041711F05E
:100850000C942C040C942E040C94AE0308950E9466
:10086000C6040027A0E3B0E08C9180FB0EF401E009
:1008700041E0041711F00C946804A8E6B0E08C91F4
:100880008F5F8C93009168000B3318F011F00C947B
:100890004B040C944E0481E08093680081E090E06A
:1008A000A0E6B0E08D939C93A0E6B0E00D911C9182
:1008B000083250E0150718F011F00C9468040E94FB
:1008C000C604A0E6B0E00E94CC0510F40C945404D9
:1008D0000027A0E3B0E08C9181FB0EF401E041E041
:1008E000041711F00C949F0480916800815080934C
:1008F0006800009168000B3318F011F00C9482042A
:100900000C9485048BE38093680081E090E0A0E67E
:10091000B0E08D939C93A0E6B0E00D911C9108325D
:1009200050E0150718F011F00C949F040E94C604C3
:10093000A0E6B0E00E94CC0510F40C948B040027D4
:10094000A0E3B0E08C9182FB0EF401E041E00417DB
:1009500011F00C94AD040C94AF040C942F04089582
:100960008AE090E00E944606A8950027A0E3B0E048
:100970008C9182FB0EF401E040E0041711F00C941E
:10098000B0048CE291E00E9446060895A8E6B0E02B
:100990000D9111274AE050E00E94F605AAE6B0E06A
:1009A0004D935C93A8E6B0E00D9111274AE050E02A
:1009B0000E94F605ACE6B0E00D931C93A9E6B0E00A
:1009C0000D9111274AE050E00E94F605AEE6B0E036
:1009D0004D935C93A9E6B0E00D9111274AE050E0F9
:1009E0000E94F605A0E7B0E00D931C93969A8091C3
:1009F0006A00809372000E943C0581E090E00E94B2
:100A00004606969883E6809372000E943C05949A6D
:100A100080916C00809372000E943C0581E090E020
:100A20000E944606949883E6809372000E943C05DB
:100A3000959A80916E00809372000E943C0581E03F
:100A400090E00E944606959883E6809372000E948B
:100A50003C05979A80917000809372000E943C053B
:100A600081E090E00E944606979883E680937200AA
:100A70000E943C05A895089500917200003011F085
:100A80000C944905AD9AAF9AA99AAB9AAC9AAE9AD2
:100A9000A89800917200013011F00C945605AD98A1
:100AA000AF9AA99AAB98AC98AE98A89800917200AA
:100AB000023011F00C946305AD9AAF9AA998AB9AE5
:100AC000AC9AAE98A89A00917200033011F00C9481
:100AD0007005AD9AAF9AA99AAB9AAC98AE98A89ABD
:100AE00000917200043011F00C947D05AD98AF9A1E
:100AF000A99AAB98AC98AE9AA89A0091720005306A
:100B000011F00C948A05AD9AAF98A99AAB9AAC985B
:100B1000AE9AA89A00917200063011F00C949705D5
:100B2000AD9AAF98A99AAB9AAC9AAE9AA89A00914E
:100B30007200073011F00C94A405AD9AAF9AA99AEF
:100B4000AB98AC98AE98A89800917200083011F05C
:100B50000C94B105AD9AAF9AA99AAB9AAC9AAE9A99
:100B6000A89A00917200093011F00C94BE05AD9A5C
:100B7000AF9AA99AAB9AAC98AE9AA89A00917200D3
:100B8000033611F00C94CB05AD98AF98A998AB98AB
:100B9000AC98AE98A8980895ED91FC91EF5FFF4F47
:100BA000FC93EE93089500FC10D0089503D01ED05E
:100BB00001F8F9CF0024E89457FF02C009D06894E7
:100BC00000F80BD010F80124089502D009D0089540
:100BD000509540954F5F5F4F0895E89417FF089533
:100BE000009510950F5F1F4F68940895352F242F9F
:100BF000E894452B11F468940895512F402F002755
:100C0000112780E1440F551F001F111F021B130BFA
:100C1000416018F4020F131F4E7F8A9599F70895CB
:100C20003197F1F70895689462F80895E89462F8AE
:100C300008958F939F938BE890E00197F1F79F9130
:100C40008F91089580952AE090E0089410F4DD9843
:100C500002C0DD9A0000EDDFECDF969587952A95BE
:100C6000A9F70895C895802D882319F0EBDF3196F8
:100C7000F9CF08958DE0E6DF8AE0E4CFA0E2B8E0A6
:100C80008D91882311F0DEDFFBCF0895EF93FF9362
:100C9000EE27E82BE92B31F0EDECFAE03197F1F794
:100CA0000197D1F7FF91EF91089580E30EF48395BA
:100CB0000895000F111F221F331F089500951095EE
:100CC000209530950F5F1F4F2F4F3F4F0895019193
:100CD00010810EC001911191219130810BC00191C1
:100CE000108117FF05C03FEF2FEF04C000811127CF
:100CF0002227332737FF03C0E1DF8DE28D93CF93A7
:100D0000DF93CF92DF92EF92AA24BB24CC24DD2480
:100D1000EE2440E2CAE0DD2755E093E38881890FA5
:100D200087FD9F7083FD907F891B89935A95A9F752
:100D3000C0DFAA1CBB1CCC1CDD1CEE1C4A9551F765
:100D4000E894EFE0FF2782910ED0EB30E0F71EF041
:100D500068948A2D0CD088278D93EF90DF90CF90E8
:100D6000DF91CF910895982F829501D0892F8F70B0
:100D7000805D26F0803309F4089568948D9308957A
:100D8000E199FECFEEBBFFBB3196089591E001C023
:100D900092E07B3751F47FB7F894F2DF8D918DBBF1
:100DA000E29AE19A9A95C9F77FBF7727089591E073
:100DB00001C092E0E5DFE09A8DB38D939A95D1F76B
:100DC000089531294F6E3D002020204F66663D007A
:100DD000202052656C61793D00002020466C6167DF
:100DE0003D0032294F6E3D0033294F6E3D002A2AC7
:100DF0002A2A2A2A2A2A2A2A2A2A20434F554E54A6
:100E0000202A2A2A2A2A2A2A2A2A2A2A2A002A2A76
:100E10002A2A2A2A2A2A2A2A2A2A2054494D4520BF
:0E0E20002A2A2A2A2A2A2A2A2A2A2A2A0000CC
:00000001FF
