:100000000C942A001895000018950000189500001F
:10001000189500001895000018950000189500002C
:10002000189500000C940D05189500001895000017
:10003000189500001895000018950000189500000C
:1000400018950000189500001895000018950000FC
:10005000189500008FE58DBFC0E4E8E34E2E88E0E0
:100060008EBFD8E0F8E05F2EEEEFF7E0A0E6B0E05C
:10007000A89584B7082E877F84BF88E1992781BD22
:1000800091BD88278D933197E9F76624D59ADD9A3B
:1000900084B7877F84BF8EE181BD86E081BD81B555
:1000A000886081BDA89580E08FBD84E08EBD89B752
:1000B000846089BF789484E08EBD8E9A8C9A8D9AE4
:1000C0008F9AA59AA79AA19AA39AA49AA69AA09A57
:1000D000A29A9698949895989798D49AD39AD29AE7
:1000E000BF98BE98BD98BA9ABB9ABC9A88988998CE
:1000F0008A98E0E0F0E0A3E7B0E00E945D09E2E06A
:10010000F0E0A5E7B0E00E945D09E4E0F0E0A7E7D9
:10011000B0E00E945D09E1E0F0E0A4E7B0E00E94F9
:100120005D09E3E0F0E0A6E7B0E00E945D09E5E0EC
:10013000F0E0A8E7B0E00E945D09DC98DB98DA986F
:1001400084E08EBD0027A0E3B0E08C9182FB0EF42A
:1001500001E041E0041711F00C94EF0080E090E022
:10016000A0E6B0E08D939C938EB5887F8EBDA0E60F
:10017000B0E00E945208A89584E690E00E94CC0866
:100180008BB390E189278BBB8BB398E089278BBB1E
:100190008BB394E089278BBBA0E6B0E00D911C9156
:1001A0000F3050E0150718F011F00C94D9000C94A2
:1001B000E000DC9ADB9ADA9A0E9436070C94A505D7
:1001C0000027A0E3B0E08C9182FB0EF401E040E058
:1001D000041711F00C94B700DC98DB98DA9800272C
:1001E000A6E3B0E08C9187FB0EF401E041E0041738
:1001F00011F00C94510100917C00003080E010F06F
:1002000009F081E08F9300917900003080E010F0D8
:1002100009F081E09F91892B882311F40C9425012A
:1002200080E08093790080E080937C00C298E8941D
:10023000A2E8B0E08C9180F98C93E894A2E8B0E059
:100240008C9181F98C930C943C010091730041E0F6
:10025000040FA9E7B0E00C938091740080937C00B8
:100260006894A2E8B0E08C9180F98C93E894A2E8BD
:10027000B0E08C9181F98C938AE090E00E94CC08E8
:10028000A8950027A6E3B0E08C9187FB0EF401E06F
:1002900040E0041711F00C943C0180E991E00E94C9
:1002A000CC080027A6E3B0E08C9186FB0EF401E0B9
:1002B00041E0041711F00C94B30100917D0000306F
:1002C00080E010F009F081E08F9300917A00003017
:1002D00080E010F009F081E09F91892B882311F4D0
:1002E0000C94870180E080937A0080E080937D0009
:1002F000C398E894A2E8B0E08C9182F98C93E894DA
:10030000A2E8B0E08C9183F98C930C949E0100914B
:10031000730041E0040FAAE7B0E00C9380917400F1
:1003200080937D006894A2E8B0E08C9182F98C9370
:10033000E894A2E8B0E08C9183F98C938AE090E095
:100340000E94CC08A8950027A6E3B0E08C9186FB1C
:100350000EF401E040E0041711F00C949E0180E9D6
:1003600091E00E94CC080027A6E3B0E08C9185FBC9
:100370000EF401E041E0041711F00C941502009115
:100380007E00003080E010F009F081E08F93009152
:100390007B00003080E010F009F081E09F91892B14
:1003A000882311F40C94E90180E080937B0080E0C5
:1003B00080937E00C498E894A2E8B0E08C9184F920
:1003C0008C93E894A2E8B0E08C9185F98C930C941E
:1003D00000020091770041E0040FABE7B0E00C931E
:1003E0008091780080937E006894A2E8B0E08C91C0
:1003F00084F98C93E894A2E8B0E08C9185F98C9311
:100400008AE090E00E94CC08A8950027A6E3B0E01F
:100410008C9185FB0EF401E040E0041711F00C9480
:10042000000280E991E00E94CC0800917C0000303D
:1004300081E009F080E08F93A2E8B0E00C9100FB2E
:1004400000270EF401E040E0041781E009F080E0AD
:100450009F9189238F93A2E8B0E00C9101FB0027C4
:100460000EF401E041E0041781E009F080E09F9183
:100470008923882311F40C945E02809179008150C5
:10048000809379008CE380937C00009179000030A8
:1004900011F00C945E02E894A2E8B0E08C9180F92F
:1004A0008C93E894A2E8B0E08C9181F98C93C29887
:1004B000EEECF2E10E94B8080E94C00800917C00B6
:1004C000003081E009F080E08F93A2E8B0E00C9169
:1004D00000FB00270EF401E041E0041781E009F081
:1004E00080E09F9189238F93A2E8B0E00C9101FBFB
:1004F00000270EF401E040E0041781E009F080E0FD
:100500009F918923882311F40C949902E894A2E81E
:10051000B0E08C9180F98C936894A2E8B0E08C9163
:1005200081F98C93C29AEAEDF2E10E94B8080E9428
:10053000C00800917D00003081E009F080E08F93D9
:10054000A2E8B0E00C9102FB00270EF401E040E0CD
:10055000041781E009F080E09F9189238F93A2E83E
:10056000B0E00C9103FB00270EF401E041E004171A
:1005700081E009F080E09F918923882311F40C9495
:10058000E20280917A00815080937A008CE380931C
:100590007D0000917A00003011F00C94E202E894A2
:1005A000A2E8B0E08C9182F98C93E894A2E8B0E0E4
:1005B0008C9183F98C93C398E4EEF2E10E94B80821
:1005C0000E94C00800917D00003081E009F080E0C9
:1005D0008F93A2E8B0E00C9102FB00270EF401E03B
:1005E00041E0041781E009F080E09F9189238F9317
:1005F000A2E8B0E00C9103FB00270EF401E040E01C
:10060000041781E009F080E09F918923882311F489
:100610000C941D03E894A2E8B0E08C9182F98C93CD
:100620006894A2E8B0E08C9183F98C93C39AE0EFD0
:10063000F2E10E94B8080E94C00800917E000030DC
:1006400081E009F080E08F93A2E8B0E00C9104FB18
:1006500000270EF401E040E0041781E009F080E09B
:100660009F9189238F93A2E8B0E00C9105FB0027AE
:100670000EF401E041E0041781E009F080E09F9171
:100680008923882311F40C94660380917B008150A8
:1006900080937B008CE380937E0000917B00003090
:1006A00011F00C946603E894A2E8B0E08C9184F910
:1006B0008C93E894A2E8B0E08C9185F98C93C4986F
:1006C000EAEFF2E10E94B8080E94C00800917E00A3
:1006D000003081E009F080E08F93A2E8B0E00C9157
:1006E00004FB00270EF401E041E0041781E009F06B
:1006F00080E09F9189238F93A2E8B0E00C9105FBE5
:1007000000270EF401E040E0041781E009F080E0EA
:100710009F918923882311F40C94A103E894A2E803
:10072000B0E08C9184F98C936894A2E8B0E08C914D
:1007300085F98C93C49AE6E0F3E10E94B8080E9420
:10074000C0080027A0E3B0E08C9180FB0EF401E02C
:1007500041E0041711F00C9496040E94C0080E9416
:10076000C008E0E1F3E10E94B808A0E2B8E0ECE7DD
:10077000F0E00E94FC080E94C408E6E1F3E10E9458
:10078000B808A0E2B8E0E9E7F0E00E94FC080E94A7
:10079000C408EEE1F3E10E94B808A8E3B0E08C9150
:1007A00082FBA0E2B8E00E94DB088D9388278C933F
:1007B0000E94C408E8E2F3E10E94B808A2E8B0E0B1
:1007C0008C9180FBA0E2B8E00E94DB088D93882723
:1007D0008C930E94C408A2E8B0E08C9181FBA0E257
:1007E000B8E00E94DB088D9388278C930E94C40890
:1007F0000E94C008E0E3F3E10E94B808A0E2B8E07C
:10080000EDE7F0E00E94FC080E94C408E6E1F3E195
:100810000E94B808A0E2B8E0EAE7F0E00E94FC0815
:100820000E94C408EEE1F3E10E94B808A8E3B0E03A
:100830008C9183FBA0E2B8E00E94DB088D938827AF
:100840008C930E94C408E8E2F3E10E94B808A2E891
:10085000B0E08C9182FBA0E2B8E00E94DB088D93AF
:1008600088278C930E94C408A2E8B0E08C9183FB97
:10087000A0E2B8E00E94DB088D9388278C930E9449
:10088000C4080E94C008E6E3F3E10E94B808A0E2B1
:10089000B8E0EEE7F0E00E94FC080E94C408E6E140
:1008A000F3E10E94B808A0E2B8E0EBE7F0E00E94B4
:1008B000FC080E94C408EEE1F3E10E94B808A8E336
:1008C000B0E08C9184FBA0E2B8E00E94DB088D933D
:1008D00088278C930E94C408E8E2F3E10E94B808DC
:1008E000A2E8B0E08C9184FBA0E2B8E00E94DB08B3
:1008F0008D9388278C930E94C408A2E8B0E08C9165
:1009000085FBA0E2B8E00E94DB088D9388278C93DA
:100910000E94C4080E94C008ECE3F3E10E94B808FA
:100920000E94C00884EF91E00E94CC080027A0E359
:10093000B0E08C9181FB0EF401E041E0041711F06E
:100940000C94FC040E94C008E0E1F3E10E94B808A6
:10095000A0E2B8E0E4E7F0E00E94FC080E94C408CE
:10096000E6E1F3E10E94B808A0E2B8E0E3E7F0E0D6
:100970000E94FC080E94C4080E94C008E0E3F3E162
:100980000E94B808A0E2B8E0E6E7F0E00E94FC08A8
:100990000E94C408E6E1F3E10E94B808A0E2B8E0D2
:1009A000E5E7F0E00E94FC080E94C4080E94C0082D
:1009B000E6E3F3E10E94B808A0E2B8E0E8E7F0E07F
:1009C0000E94FC080E94C408E6E1F3E10E94B80816
:1009D000A0E2B8E0E7E7F0E00E94FC080E94C4084B
:1009E0000E94C008ECE5F3E10E94B8080E94C0082C
:1009F00084EF91E00E94CC08A89581E090E00E94ED
:100A0000CC0880917C00809369008091790080936C
:100A100068000E944C070C94A2000F921F922F9224
:100A20003F924F925F927F92AF92BF920F931F932C
:100A30002F933F934F935F936F937F938F939F93E6
:100A4000AF93BF93CF93DF93EF93FF938FB78F93C2
:100A50008FE397E59DBD8CBDAFE7B0E08C918F5FD4
:100A60008C9300917F000C3318F011F00C943A0530
:100A70000C944B0580E080937F0000917C00003057
:100A800018F011F00C9446050C944B0580917C00F5
:100A9000815080937C00A0E8B0E08C918F5F8C93B4
:100AA000009180000C3318F011F00C9459050C944F
:100AB0006A0580E08093800000917D00003018F08E
:100AC00011F00C9465050C946A0580917D008150AD
:100AD00080937D00A1E8B0E08C918F5F8C930091B2
:100AE00081000C3318F011F00C9478050C948905F2
:100AF00080E08093810000917E00003018F011F0BA
:100B00000C9484050C94890580917E00815080931B
:100B10007E008F918FBFFF91EF91DF91CF91BF91B9
:100B2000AF919F918F917F916F915F914F913F9185
:100B30002F911F910F91BF90AF907F905F904F903A
:100B40003F902F901F900F901895DC9ADB98DA98C1
:100B500080E08093680080917400809369000E9417
:100B600034068091690080937400E1E0F0E0A9E62A
:100B7000B0E07BE70E944C090E9436078091730029
:100B80008093680080E0809369000E94B5068091A0
:100B9000680080937300E0E0F0E0A8E6B0E07BE757
:100BA0000E944C090E943607DC98DB9ADA9880E0B4
:100BB0008093680080917600809369000E943406DB
:100BC0008091690080937600E3E0F0E0A9E6B0E070
:100BD0007BE70E944C090E94360780917500809344
:100BE000680080E0809369000E94B50680916800EB
:100BF00080937500E2E0F0E0A8E6B0E07BE70E94B9
:100C00004C090E943607DC98DB98DA9A80E08093E2
:100C1000680080917800809369000E94340680917A
:100C2000690080937800E5E0F0E0A9E6B0E07BE7BA
:100C30000E944C090E9436078091770080936800DB
:100C400080E0809369000E94B506809168008093DF
:100C50007700E4E0F0E0A8E6B0E07BE70E944C0912
:100C60000E9436070C949D000E944C070027A0E3C9
:100C7000B0E08C9180FB0EF401E041E0041711F02C
:100C80000C946D06A9E6B0E08C918F5F8C93009177
:100C900069000B3318F011F00C9450060C945306B5
:100CA00081E08093690081E090E0A0E6B0E08D9360
:100CB0009C93A0E6B0E00D911C91083250E015071E
:100CC00018F011F00C946D060E944C07A0E6B0E0FD
:100CD0000E94520810F40C9459060027A0E3B0E0DB
:100CE0008C9181FB0EF401E041E0041711F00C94AB
:100CF000A406809169008150809369000091690089
:100D00000B3318F011F00C9487060C948A068BE3D1
:100D10008093690081E090E0A0E6B0E08D939C9321
:100D2000A0E6B0E00D911C91083250E0150718F0D4
:100D300011F00C94A4060E944C07A0E6B0E00E94BB
:100D4000520810F40C9490060027A0E3B0E08C91B8
:100D500082FB0EF401E041E0041711F00C94B2069E
:100D60000C94B4060C94340608950E944C07002796
:100D7000A0E3B0E08C9180FB0EF401E041E00417A9
:100D800011F00C94EE06A8E6B0E08C918F5F8C9386
:100D9000009168000B3318F011F00C94D1060C94FC
:100DA000D40681E08093680081E090E0A0E6B0E0A6
:100DB0008D939C93A0E6B0E00D911C91083250E019
:100DC000150718F011F00C94EE060E944C07A0E6EF
:100DD000B0E00E94520810F40C94DA060027A0E359
:100DE000B0E08C9181FB0EF401E041E0041711F0BA
:100DF0000C942507809168008150809368000091D1
:100E000068000B3318F011F00C9408070C940B07D2
:100E10008BE38093680081E090E0A0E6B0E08D93E2
:100E20009C93A0E6B0E00D911C91083250E01507AC
:100E300018F011F00C9425070E944C07A0E6B0E0D2
:100E40000E94520810F40C9411070027A0E3B0E0B0
:100E50008C9182FB0EF401E041E0041711F00C9438
:100E600033070C9435070C94B50608958AE090E09A
:100E70000E94CC08A8950027A0E3B0E08C9182FBEB
:100E80000EF401E040E0041711F00C9436078CE2F8
:100E900091E00E94CC080895A8E6B0E00D911127DA
:100EA0004AE050E00E947C08AAE6B0E04D935C93D3
:100EB000A8E6B0E00D9111274AE050E00E947C08BE
:100EC000ACE6B0E00D931C93A9E6B0E00D911127BC
:100ED0004AE050E00E947C08AEE6B0E04D935C939F
:100EE000A9E6B0E00D9111274AE050E00E947C088D
:100EF000A0E7B0E00D931C93969A80916A008093CE
:100F000072000E94C20781E090E00E94CC0896988F
:100F100083E6809372000E94C207949A80916C00CD
:100F2000809372000E94C20781E090E00E94CC088A
:100F3000949883E6809372000E94C207959A8091EC
:100F40006E00809372000E94C20781E090E00E94D0
:100F5000CC08959883E6809372000E94C207979A06
:100F600080917000809372000E94C20781E090E03F
:100F70000E94CC08979883E6809372000E94C20773
:100F8000A895089500917200003011F00C94CF07DD
:100F9000AD9AAF9AA99AAB9AAC9AAE9AA8980091DA
:100FA0007200013011F00C94DC07AD98AF9AA99A49
:100FB000AB98AC98AE98A89800917200023011F0EE
:100FC0000C94E907AD9AAF9AA998AB9AAC9AAE98EF
:100FD000A89A00917200033011F00C94F607AD9AB4
:100FE000AF9AA99AAB9AAC98AE98A89A0091720061
:100FF000043011F00C940308AD98AF9AA99AAB98FD
:10100000AC98AE9AA89A00917200053011F00C9439
:101010001008AD9AAF98A99AAB9AAC98AE9AA89AD4
:1010200000917200063011F00C941D08AD9AAF9833
:10103000A99AAB9AAC9AAE9AA89A0091720007301E
:1010400011F00C942A08AD9AAF9AA99AAB98AC9873
:10105000AE98A89800917200083011F00C943708EF
:10106000AD9AAF9AA99AAB9AAC9AAE9AA89A009107
:101070007200093011F00C944408AD9AAF9AA99A05
:10108000AB9AAC98AE9AA89A00917200033611F010
:101090000C945108AD98AF98A998AB98AC98AE98BD
:1010A000A8980895ED91FC91EF5FFF4FFC93EE93AC
:1010B000089500FC10D0089503D01ED001F8F9CF98
:1010C0000024E89457FF02C009D0689400F80BD0C0
:1010D00010F80124089502D009D008955095409544
:1010E0004F5F5F4F0895E89417FF0895009510959E
:1010F0000F5F1F4F68940895352F242FE894452BD8
:1011000011F468940895512F402F0027112780E192
:10111000440F551F001F111F021B130B416018F4D1
:10112000020F131F4E7F8A9599F708953197F1F7B3
:101130000895689462F80895E89462F808958F938A
:101140009F938BE890E00197F1F79F918F9108951D
:1011500080952AE090E0089410F4DD9802C0DD9AB2
:101160000000EDDFECDF969587952A95A9F70895A5
:10117000C895802D882319F0EBDF3196F9CF0895BB
:101180008DE0E6DF8AE0E4CFA0E2B8E08D9188232D
:1011900011F0DEDFFBCF0895EF93FF93EE27E82BEE
:1011A000E92B31F0EDECFAE03197F1F70197D1F747
:1011B000FF91EF91089580E30EF483950895000F59
:1011C000111F221F331F089500951095209530950B
:1011D0000F5F1F4F2F4F3F4F0895019110810EC099
:1011E00001911191219130810BC00191108117FF64
:1011F00005C03FEF2FEF04C00081112722273327BE
:1012000037FF03C0E1DF8DE28D93CF93DF93CF9261
:10121000DF92EF92AA24BB24CC24DD24EE2440E20A
:10122000CAE0DD2755E093E38881890F87FD9F7031
:1012300083FD907F891B89935A95A9F7C0DFAA1C6B
:10124000BB1CCC1CDD1CEE1C4A9551F7E894EFE06A
:10125000FF2782910ED0EB30E0F71EF068948A2DC4
:101260000CD088278D93EF90DF90CF90DF91CF91B6
:101270000895982F829501D0892F8F70805D26F078
:10128000803309F4089568948D930895E199FECF11
:10129000EEBBFFBB3196089591E001C092E07B3731
:1012A00051F47FB7F894F2DF8D918DBBE29AE19A09
:1012B0009A95C9F77FBF7727089591E001C092E022
:1012C000E5DFE09A8DB38D939A95D1F70895526535
:1012D0006C617931204F4646000052656C6179316E
:1012E000206F6E0052656C617932204F46460000D7
:1012F00052656C617932206F6E0052656C61793392
:10130000204F4646000052656C617933206F6E00B5
:1013100031294F6E3D002020204F66663D00202081
:1013200052656C61793D00002020466C61673D008C
:1013300032294F6E3D0033294F6E3D002A2A2A2A5A
:101340002A2A2A2A2A2A2A2A20434F554E54202A5A
:101350002A2A2A2A2A2A2A2A2A2A2A002A2A2A2A17
:101360002A2A2A2A2A2A2A2A2054494D45202A2A6A
:0C1370002A2A2A2A2A2A2A2A2A2A0000CD
:00000001FF
