:100000000C942A001895000018950000189500001F
:10001000189500001895000018950000189500002C
:10002000189500000C94E90418950000189500003C
:10003000189500001895000018950000189500000C
:1000400018950000189500001895000018950000FC
:10005000189500008FE58DBFC0E4E8E34E2E88E0E0
:100060008EBFD8E0F8E05F2EEEEFF7E0A0E6B0E05C
:10007000A89584B7082E877F84BF88E1992781BD22
:1000800091BD88278D933197E9F76624D59ADD9A3B
:1000900084B7877F84BF8EE181BD86E081BD81B555
:1000A000886081BDA89580E08FBD84E08EBD89B752
:1000B000846089BF789484E08EBD8E9A8C9A8D9AE4
:1000C0008F9AA59AA79AA19AA39AA49AA69AA09A57
:1000D000A29A9698949895989798D49AD39AD29AE7
:1000E000BF98BE98BD98BA9ABB9ABC9AD79A88987E
:1000F00089988A98E0E0F0E0A4E7B0E00E949C09CB
:10010000E2E0F0E0A6E7B0E00E949C09E4E0F0E065
:10011000A8E7B0E00E949C09E1E0F0E0A5E7B0E0CC
:100120000E949C09E3E0F0E0A7E7B0E00E949C0990
:10013000E5E0F0E0A9E7B0E00E949C09DC98DB98DC
:10014000DA98AA9884E08EBD0E94C6040027A0E336
:10015000B0E08C9182FB0EF401E041E0041711F055
:100160000C94F60080E090E0A0E6B0E08D939C93C4
:100170008EB5887F8EBDA0E6B0E00E947D08A89570
:1001800084E690E00E9401098BB390E189278BBB44
:100190008BB398E089278BBB8BB394E089278BBB0B
:1001A000A0E6B0E00D911C910F3050E0150718F05B
:1001B00011F00C94DD000C94E700DC9ADB9ADA9ADB
:1001C0000E94C6040E946107AA9A0C94D0050027D9
:1001D000A0E3B0E08C9182FB0EF401E040E0041754
:1001E00011F00C94BB00DC98DB98DA980027A6E3AA
:1001F000B0E08C9187FB0EF401E041E0041711F0B0
:100200000C942D010E94C6046894A3E8B0E08C9180
:1002100080F98C93E894A3E8B0E08C9181F98C93F9
:10022000A5E7B0E08C91AAE7B0E08D9388278C9386
:100230008AE090E00E940109A8950027A6E3B0E0BB
:100240008C9187FB0EF401E040E0041711F00C9450
:10025000180180E991E00E9401090027A6E3B0E0BF
:100260008C9186FB0EF401E041E0041711F00C9430
:1002700064010E94C6046894A3E8B0E08C9182F9FE
:100280008C93E894A3E8B0E08C9183F98C93A7E772
:10029000B0E08C91ACE7B0E08D9388278C938AE036
:1002A00090E00E940109A8950027A6E3B0E08C9198
:1002B00086FB0EF401E040E0041711F00C944F01AE
:1002C00080E991E00E9401090027A6E3B0E08C914B
:1002D00085FB0EF401E041E0041711F00C949B0142
:1002E0000E94C6046894A3E8B0E08C9184F98C93D2
:1002F000E894A3E8B0E08C9185F98C93A9E7B0E08D
:100300008C91AEE7B0E08D9388278C938AE090E0E3
:100310000E940109A8950027A6E3B0E08C9185FB17
:100320000EF401E040E0041711F00C94860180E91E
:1003300091E00E940109AAE7B0E00D911C91003004
:1003400050E0150711F00C941E02A3E8B0E00C91E8
:1003500000FB00270EF401E040E0041781E009F003
:1003600080E08F93A3E8B0E00C9101FB00270EF42E
:1003700001E041E0041781E009F080E09F918923CA
:10038000882311F40C94D801C298E894A3E8B0E053
:100390008C9180F98C93E894A3E8B0E08C9181F97A
:1003A0008C93DC98ECE6F3E10E94ED080E94F508DE
:1003B000A3E8B0E00C9100FB00270EF401E041E05F
:1003C000041781E009F080E08F93A3E8B0E00C917E
:1003D00001FB00270EF401E040E0041781E009F082
:1003E00080E09F918923882311F40C941E02C29A05
:1003F000A4E7B0E00D9111274CE350E00E941009F2
:10040000AAE7B0E00D931C93E894A3E8B0E08C91C8
:1004100080F98C936894A3E8B0E08C9181F98C9377
:10042000E8E7F3E10E94ED08A0E2B8E0EAE7F0E0D7
:100430000E942C090E94F9080E94F508ACE7B0E080
:100440000D911C91003050E0150711F00C94A102A1
:10045000A3E8B0E00C9102FB00270EF401E040E0BD
:10046000041781E009F080E08F93A3E8B0E00C91DD
:1004700003FB00270EF401E041E0041781E009F0DE
:1004800080E09F918923882311F40C945B02C39828
:10049000DB98E894A3E8B0E08C9182F98C93E8941F
:1004A000A3E8B0E08C9183F98C93E6E8F3E10E9435
:1004B000ED080E94F508A3E8B0E00C9102FB0027CC
:1004C0000EF401E041E0041781E009F080E08F9331
:1004D000A3E8B0E00C9103FB00270EF401E040E03C
:1004E000041781E009F080E09F918923882311F4AB
:1004F0000C94A102C39AA6E7B0E00D9111274CE33A
:1005000050E00E941009ACE7B0E00D931C93E89412
:10051000A3E8B0E08C9182F98C936894A3E8B0E0F2
:100520008C9183F98C93E2E9F3E10E94ED08A0E25B
:10053000B8E0ECE7F0E00E942C090E94F9080E9464
:10054000F508AEE7B0E00D911C91003050E01507C2
:1005500011F00C942403A3E8B0E00C9104FB0027F5
:100560000EF401E040E0041781E009F080E08F9391
:10057000A3E8B0E00C9105FB00270EF401E041E098
:10058000041781E009F080E09F918923882311F40A
:100590000C94DE02C498DA98E894A3E8B0E08C9159
:1005A00084F98C93E894A3E8B0E08C9185F98C935E
:1005B000E0EAF3E10E94ED080E94F508A3E8B0E04C
:1005C0000C9104FB00270EF401E041E0041781E0E8
:1005D00009F080E08F93A3E8B0E00C9105FB0027C1
:1005E0000EF401E040E0041781E009F080E09F9103
:1005F0008923882311F40C942403C49AA8E7B0E05B
:100600000D9111274CE350E00E941009AEE7B0E0D5
:100610000D931C93E894A3E8B0E08C9184F98C933B
:100620006894A3E8B0E08C9185F98C93ECEAF3E14F
:100630000E94ED08A0E2B8E0EEE7F0E00E942C098D
:100640000E94F9080E94F5080027A6E3B0E08C910B
:1006500086FB0EF401E041E0041711F00C9447030F
:100660000E94C6048AE090E00E940109A895002734
:10067000A6E3B0E08C9186FB0EF401E040E00417A5
:1006800011F00C94320380E991E00E9401090027E7
:10069000A6E3B0E08C9185FB0EF401E041E0041785
:1006A00011F00C946A030E94C6048AE090E00E9454
:1006B0000109A8950027A6E3B0E08C9185FB0EF414
:1006C00001E040E0041711F00C94550380E991E03B
:1006D0000E9401090027A0E3B0E08C9180FB0EF49A
:1006E00001E041E0041711F00C9447040E94F50862
:1006F0000E94F508EAEBF3E10E94ED08E0ECF3E17B
:100700000E94ED08A0E2B8E0EAE7F0E00E942C09C0
:100710000E94F908E8ECF3E10E94ED08A8E3B0E0DC
:100720008C9182FBA0E2B8E00E941A098D93882781
:100730008C930E94F908E2EDF3E10E94ED08A3E832
:10074000B0E08C9180FBA0E2B8E00E941A098D9382
:1007500088278C930E94F908A3E8B0E08C9181FB74
:10076000A0E2B8E00E941A098D9388278C930E941A
:10077000F9080E94F508EAEDF3E10E94ED08E0ECCB
:10078000F3E10E94ED08A0E2B8E0ECE7F0E00E949F
:100790002C090E94F908E8ECF3E10E94ED08A8E3B7
:1007A000B0E08C9183FBA0E2B8E00E941A098D931F
:1007B00088278C930E94F908E2EDF3E10E94ED088E
:1007C000A3E8B0E08C9182FBA0E2B8E00E941A0995
:1007D0008D9388278C930E94F908A3E8B0E08C9150
:1007E00083FBA0E2B8E00E941A098D9388278C93BE
:1007F0000E94F9080E94F508E0EEF3E10E94ED087E
:10080000E0ECF3E10E94ED08A0E2B8E0EEE7F0E0F2
:100810000E942C090E94F908E8ECF3E10E94ED081F
:10082000A8E3B0E08C9184FBA0E2B8E00E941A0932
:100830008D9388278C930E94F908E2EDF3E10E94E2
:10084000ED08A3E8B0E08C9184FBA0E2B8E00E9440
:100850001A098D9388278C930E94F908A3E8B0E0C9
:100860008C9185FBA0E2B8E00E941A098D9388273D
:100870008C930E94F9080E94F508E6EEF3E10E94CD
:10088000ED080E94F50884EF91E00E94010900271D
:10089000A0E3B0E08C9181FB0EF401E041E004178D
:1008A00011F00C94AD040E94F508EAEBF3E10E940C
:1008B000ED08A0E2B8E0E5E7F0E00E943B090E9405
:1008C000F908E0ECF3E10E94ED08A0E2B8E0E4E70B
:1008D000F0E00E943B090E94F9080E94F508EAED49
:1008E000F3E10E94ED08A0E2B8E0E7E7F0E00E9443
:1008F0003B090E94F908E0ECF3E10E94ED08A0E258
:10090000B8E0E6E7F0E00E943B090E94F9080E9487
:10091000F508E0EEF3E10E94ED08A0E2B8E0E9E7B7
:10092000F0E00E943B090E94F908E0ECF3E10E942C
:10093000ED08A0E2B8E0E8E7F0E00E943B090E9481
:10094000F9080E94F508E6E0F4E10E94ED080E9433
:10095000F50884EF91E00E94010981E090E00E9497
:100960000109A89500917A0044E60E94A609AAE62A
:10097000B0E08C9300917A0044E60E94A609A9E6B3
:10098000B0E00C930E9477070C94A60081E090E001
:10099000A0E6B0E08D939C93A0E6B0E00D911C9191
:1009A000033050E0150718F011F00C94E804DF9ABA
:1009B0008CE390E00E940109DF988CE390E00E94B4
:1009C0000109A0E6B0E00E947D0810F40C94CC046C
:1009D00008950F921F922F923F924F925F927F92B3
:1009E000AF92BF920F931F932F933F934F935F93B9
:1009F0006F937F938F939F93AF93BF93CF93DF9327
:100A0000EF93FF938FB78F938FE397E59DBD8CBDD9
:100A1000A8E6B0E08C9187FB882780F9809580FB61
:100A2000A8E6B0E08C9187F98C93009180000030AB
:100A300011F00C942F058CE380938000AAE7B0E0BE
:100A40000D911C91003050E0150718F011F00C9436
:100A50002B050C942F05AAE7B0E00E948408809132
:100A6000800081508093800000918100003011F05F
:100A70000C944E058CE380938100ACE7B0E00D91BF
:100A80001C91003050E0150718F011F00C944A0545
:100A90000C944E05ACE7B0E00E9484088091810080
:100AA00081508093810000918200003011F00C94FD
:100AB0006D058CE380938200AEE7B0E00D911C9150
:100AC000003050E0150718F011F00C9469050C94F3
:100AD0006D05AEE7B0E00E948408A2E8B0E08C911A
:100AE0008F5F8C93AAE7B0E00D911C91003050E02D
:100AF000150718F011F00C947F050C948805A8E6F2
:100B0000B0E08C9187FBABE3B0E08C9184F98C93DF
:100B1000ACE7B0E00D911C91003050E0150718F0E3
:100B200011F00C9495050C949E05A8E6B0E08C910C
:100B300087FBABE3B0E08C9183F98C93AEE7B0E038
:100B40000D911C91003050E0150718F011F00C9435
:100B5000AB050C94B405A8E6B0E08C9187FBABE341
:100B6000B0E08C9182F98C938F918FBFFF91EF91C0
:100B7000DF91CF91BF91AF919F918F917F916F91B5
:100B80005F914F913F912F911F910F91BF90AF9027
:100B90007F905F904F903F902F901F900F901895EF
:100BA000DC9ADB98DA9880E0809369008091750088
:100BB00080936A000E945F0680916A0080937500AE
:100BC000E1E0F0E0AAE6B0E07BE70E948B090E943A
:100BD0006107809174008093690080E080936A00CF
:100BE0000E94E0068091690080937400E0E0F0E0EC
:100BF000A9E6B0E07BE70E948B090E946107DC98C0
:100C0000DB9ADA9880E08093690080917700809386
:100C10006A000E945F0680916A0080937700E3E09B
:100C2000F0E0AAE6B0E07BE70E948B090E94610732
:100C3000809176008093690080E080936A000E9432
:100C4000E0068091690080937600E2E0F0E0A9E69A
:100C5000B0E07BE70E948B090E946107DC98DB987B
:100C6000DA9A80E0809369008091790080936A002D
:100C70000E945F0680916A0080937900E5E0F0E0D1
:100C8000AAE6B0E07BE70E948B090E946107809191
:100C900078008093690080E080936A000E94E006FB
:100CA0008091690080937800E4E0F0E0A9E6B0E08C
:100CB0007BE70E948B090E9461070C949E000E94B2
:100CC00077070027A0E3B0E08C9180FB0EF401E0F1
:100CD00041E0041711F00C949806AAE6B0E08C915C
:100CE0008F5F8C9300916A000B3318F011F00C9415
:100CF0007B060C947E0681E080936A0081E090E0A0
:100D0000A0E6B0E08D939C93A0E6B0E00D911C911D
:100D1000083250E0150718F011F00C9498060E9464
:100D20007707A0E6B0E00E947D0810F40C948406DA
:100D30000027A0E3B0E08C9181FB0EF401E041E0DC
:100D4000041711F00C94CF0680916A0081508093B3
:100D50006A0000916A000B3318F011F00C94B2068F
:100D60000C94B5068BE380936A0081E090E0A0E6E6
:100D7000B0E08D939C93A0E6B0E00D911C910832F9
:100D800050E0150718F011F00C94CF060E94770779
:100D9000A0E6B0E00E947D0810F40C94BB0600278A
:100DA000A0E3B0E08C9182FB0EF401E041E0041777
:100DB00011F00C94DD060C94DF060C945F06089588
:100DC0000E9477070027A0E3B0E08C9180FB0EF42F
:100DD00001E041E0041711F00C941907A9E6B0E016
:100DE0008C918F5F8C93009169000B3318F011F098
:100DF0000C94FC060C94FF0681E08093690081E06E
:100E000090E0A0E6B0E08D939C93A0E6B0E00D9159
:100E10001C91083250E0150718F011F00C941907D6
:100E20000E947707A0E6B0E00E947D0810F40C94C1
:100E300005070027A0E3B0E08C9181FB0EF401E0F0
:100E400041E0041711F00C94500780916900815023
:100E500080936900009169000B3318F011F00C9435
:100E600033070C9436078BE38093690081E090E0B0
:100E7000A0E6B0E08D939C93A0E6B0E00D911C91AC
:100E8000083250E0150718F011F00C9450070E943A
:100E90007707A0E6B0E00E947D0810F40C943C07B0
:100EA0000027A0E3B0E08C9182FB0EF401E041E06A
:100EB000041711F00C945E070C9460070C94E00684
:100EC00008958AE090E00E940109A8950027A0E318
:100ED000B0E08C9182FB0EF401E040E0041711F0C9
:100EE0000C9461078CE291E00E9401090895A9E643
:100EF000B0E00D9111274AE050E00E94B108ABE646
:100F0000B0E04D935C93A9E6B0E00D9111274AE063
:100F100050E00E94B108ADE6B0E00D931C93AAE644
:100F2000B0E00D9111274AE050E00E94B108AFE611
:100F3000B0E04D935C93AAE6B0E00D9111274AE032
:100F400050E00E94B108A1E7B0E00D931C93969A7F
:100F500080916B00809373000E94ED0781E090E028
:100F60000E940109969883E6809373000E94ED0722
:100F7000949A80916D00809373000E94ED0781E048
:100F800090E00E940109949883E6809373000E9488
:100F9000ED07959A80916F00809373000E94ED0792
:100FA00081E090E00E940109959883E680937300A8
:100FB0000E94ED07979A80917100809373000E94C0
:100FC000ED0781E090E00E940109979883E6809305
:100FD00073000E94ED07A8950895009173000030FA
:100FE00011F00C94FA07AD9AAF9AA99AAB9AAC9A01
:100FF000AE9AA89800917300013011F00C94070884
:10100000AD98AF9AA99AAB98AC98AE98A898009171
:101010007300023011F00C941408AD9AAF9AA9989D
:10102000AB9AAC9AAE98A89A00917300033011F075
:101030000C942108AD9AAF9AA99AAB9AAC98AE9845
:10104000A89A00917300043011F00C942E08AD980A
:10105000AF9AA99AAB98AC98AE9AA89A00917300EF
:10106000053011F00C943B08AD9AAF98A99AAB9A51
:10107000AC98AE9AA89A00917300063011F00C94C7
:101080004808AD9AAF98A99AAB9AAC9AAE9AA89A2A
:1010900000917300073011F00C945508AD9AAF9A87
:1010A000A99AAB98AC98AE98A898009173000830B4
:1010B00011F00C946208AD9AAF9AA99AAB9AAC9AC7
:1010C000AE9AA89A00917300093011F00C946F0841
:1010D000AD9AAF9AA99AAB9AAC98AE9AA89A009199
:1010E0007300033611F00C947C08AD98AF98A99862
:1010F000AB98AC98AE98A8980895ED91FC91EF5FED
:10110000FF4FFC93EE930895ED91FC91E150F04078
:10111000FC93EE93089509D00E94100900FC10D0B2
:10112000089503D01ED001F8F9CF0024E89457FFAA
:1011300002C009D0689400F80BD010F8012408957B
:1011400002D009D00895509540954F5F5F4F0895A4
:10115000E89417FF0895009510950F5F1F4F68944E
:101160000895352F242FE894452B11F468940895A1
:10117000512F402F0027112780E1440F551F001FDA
:10118000111F021B130B416018F4020F131F4E7F37
:101190008A9599F708953197F1F70895689462F860
:1011A0000895E89462F808958F939F938BE890E0F8
:1011B0000197F1F79F918F91089580952AE090E033
:1011C000089410F4DD9802C0DD9A0000EDDFECDF3A
:1011D000969587952A95A9F70895C895802D882317
:1011E00019F0EBDF3196F9CF08958DE0E6DF8AE064
:1011F000E4CFA0E2B8E08D91882311F0DEDFFBCFD1
:101200000895EF93FF93EE27E82BE92B31F0EDECF7
:10121000FAE03197F1F70197D1F7FF91EF91089537
:101220000F92B801469F8001479F100D569F100DE9
:101230000F90089580E30EF483950895000F111F19
:10124000221F331F089500951095209530950F5F4C
:101250001F4F2F4F3F4F0895019110810EC00191F4
:101260001191219130810BC00191108117FF05C0B0
:101270003FEF2FEF04C0008111272227332737FFCC
:1012800003C0E1DF8DE28D93CF93DF93CF92DF92A6
:10129000EF92AA24BB24CC24DD24EE2440E2CAE051
:1012A000DD2755E093E38881890F87FD9F7083FDDB
:1012B000907F891B89935A95A9F7C0DFAA1CBB1C94
:1012C000CC1CDD1CEE1C4A9551F7E894EFE0FF279B
:1012D00082910ED0EB30E0F71EF068948A2D0CD08E
:1012E00088278D93EF90DF90CF90DF91CF91089575
:1012F000982F829501D0892F8F70805D26F08033E2
:1013000009F4089568948D930895E199FECFEEBB9A
:10131000FFBB3196089591E001C092E07B3751F414
:101320007FB7F894F2DF8D918DBBE29AE19A9A959E
:10133000C9F77FBF7727089591E001C092E0E5DF0C
:10134000E09A8DB38D939A95D1F70895FF93881BFA
:10135000F9E0001FFA9511F4FF910895881F841B8E
:1013600018F4840F8894F5CF0894F3CF52656C611C
:1013700079313D6F6666000052656C6179313D6F71
:101380006E2020543D0052656C6179323D6F666677
:10139000000052656C6179323D6F6E2020543D0033
:1013A00052656C6179333D6F6666000052656C6111
:1013B00079333D6F6E2020543D0031294F6E3D0042
:1013C0002020204F66663D00202052656C61793DEB
:1013D00000002020466C61673D0032294F6E3D00C1
:1013E00033294F6E3D002A2A2A2A2A2A2A2A2A2A03
:1013F0002A2A20434F554E54202A2A2A2A2A2A2AAA
:101400002A2A2A2A2A002A2A2A2A2A2A2A2A2A2A66
:101410002A2A2054494D45202A2A2A2A2A2A2A2AB9
:061420002A2A2A2A00001E
:00000001FF
